{
  "contractName": "Barricard",
  "abi": [
    {
      "inputs": [],
      "stateMutability": "nonpayable",
      "type": "constructor"
    },
    {
      "anonymous": false,
      "inputs": [
        {
          "indexed": true,
          "internalType": "address",
          "name": "owner",
          "type": "address"
        },
        {
          "indexed": true,
          "internalType": "address",
          "name": "approved",
          "type": "address"
        },
        {
          "indexed": true,
          "internalType": "uint256",
          "name": "tokenId",
          "type": "uint256"
        }
      ],
      "name": "Approval",
      "type": "event"
    },
    {
      "anonymous": false,
      "inputs": [
        {
          "indexed": true,
          "internalType": "address",
          "name": "owner",
          "type": "address"
        },
        {
          "indexed": true,
          "internalType": "address",
          "name": "operator",
          "type": "address"
        },
        {
          "indexed": false,
          "internalType": "bool",
          "name": "approved",
          "type": "bool"
        }
      ],
      "name": "ApprovalForAll",
      "type": "event"
    },
    {
      "anonymous": false,
      "inputs": [
        {
          "indexed": false,
          "internalType": "uint256",
          "name": "_id",
          "type": "uint256"
        },
        {
          "indexed": false,
          "internalType": "uint8",
          "name": "_puissance",
          "type": "uint8"
        },
        {
          "indexed": false,
          "internalType": "bool",
          "name": "_isInDeck",
          "type": "bool"
        }
      ],
      "name": "NewCard",
      "type": "event"
    },
    {
      "anonymous": false,
      "inputs": [
        {
          "indexed": true,
          "internalType": "address",
          "name": "previousOwner",
          "type": "address"
        },
        {
          "indexed": true,
          "internalType": "address",
          "name": "newOwner",
          "type": "address"
        }
      ],
      "name": "OwnershipTransferred",
      "type": "event"
    },
    {
      "anonymous": false,
      "inputs": [
        {
          "indexed": true,
          "internalType": "address",
          "name": "from",
          "type": "address"
        },
        {
          "indexed": true,
          "internalType": "address",
          "name": "to",
          "type": "address"
        },
        {
          "indexed": true,
          "internalType": "uint256",
          "name": "tokenId",
          "type": "uint256"
        }
      ],
      "name": "Transfer",
      "type": "event"
    },
    {
      "inputs": [
        {
          "internalType": "address",
          "name": "owner",
          "type": "address"
        }
      ],
      "name": "balanceOf",
      "outputs": [
        {
          "internalType": "uint256",
          "name": "",
          "type": "uint256"
        }
      ],
      "stateMutability": "view",
      "type": "function",
      "constant": true
    },
    {
      "inputs": [
        {
          "internalType": "uint256",
          "name": "",
          "type": "uint256"
        }
      ],
      "name": "cardToOwner",
      "outputs": [
        {
          "internalType": "address",
          "name": "",
          "type": "address"
        }
      ],
      "stateMutability": "view",
      "type": "function",
      "constant": true
    },
    {
      "inputs": [
        {
          "internalType": "uint256",
          "name": "",
          "type": "uint256"
        }
      ],
      "name": "cards",
      "outputs": [
        {
          "internalType": "uint256",
          "name": "id",
          "type": "uint256"
        },
        {
          "internalType": "uint8",
          "name": "puissance",
          "type": "uint8"
        },
        {
          "internalType": "bool",
          "name": "isInDeck",
          "type": "bool"
        }
      ],
      "stateMutability": "view",
      "type": "function",
      "constant": true
    },
    {
      "inputs": [
        {
          "internalType": "uint256",
          "name": "tokenId",
          "type": "uint256"
        }
      ],
      "name": "getApproved",
      "outputs": [
        {
          "internalType": "address",
          "name": "",
          "type": "address"
        }
      ],
      "stateMutability": "view",
      "type": "function",
      "constant": true
    },
    {
      "inputs": [
        {
          "internalType": "address",
          "name": "owner",
          "type": "address"
        },
        {
          "internalType": "address",
          "name": "operator",
          "type": "address"
        }
      ],
      "name": "isApprovedForAll",
      "outputs": [
        {
          "internalType": "bool",
          "name": "",
          "type": "bool"
        }
      ],
      "stateMutability": "view",
      "type": "function",
      "constant": true
    },
    {
      "inputs": [],
      "name": "name",
      "outputs": [
        {
          "internalType": "string",
          "name": "",
          "type": "string"
        }
      ],
      "stateMutability": "view",
      "type": "function",
      "constant": true
    },
    {
      "inputs": [],
      "name": "owner",
      "outputs": [
        {
          "internalType": "address",
          "name": "",
          "type": "address"
        }
      ],
      "stateMutability": "view",
      "type": "function",
      "constant": true
    },
    {
      "inputs": [
        {
          "internalType": "uint256",
          "name": "tokenId",
          "type": "uint256"
        }
      ],
      "name": "ownerOf",
      "outputs": [
        {
          "internalType": "address",
          "name": "",
          "type": "address"
        }
      ],
      "stateMutability": "view",
      "type": "function",
      "constant": true
    },
    {
      "inputs": [],
      "name": "renounceOwnership",
      "outputs": [],
      "stateMutability": "nonpayable",
      "type": "function"
    },
    {
      "inputs": [
        {
          "internalType": "address",
          "name": "from",
          "type": "address"
        },
        {
          "internalType": "address",
          "name": "to",
          "type": "address"
        },
        {
          "internalType": "uint256",
          "name": "tokenId",
          "type": "uint256"
        }
      ],
      "name": "safeTransferFrom",
      "outputs": [],
      "stateMutability": "nonpayable",
      "type": "function"
    },
    {
      "inputs": [
        {
          "internalType": "address",
          "name": "from",
          "type": "address"
        },
        {
          "internalType": "address",
          "name": "to",
          "type": "address"
        },
        {
          "internalType": "uint256",
          "name": "tokenId",
          "type": "uint256"
        },
        {
          "internalType": "bytes",
          "name": "_data",
          "type": "bytes"
        }
      ],
      "name": "safeTransferFrom",
      "outputs": [],
      "stateMutability": "nonpayable",
      "type": "function"
    },
    {
      "inputs": [
        {
          "internalType": "address",
          "name": "operator",
          "type": "address"
        },
        {
          "internalType": "bool",
          "name": "approved",
          "type": "bool"
        }
      ],
      "name": "setApprovalForAll",
      "outputs": [],
      "stateMutability": "nonpayable",
      "type": "function"
    },
    {
      "inputs": [
        {
          "internalType": "bytes4",
          "name": "interfaceId",
          "type": "bytes4"
        }
      ],
      "name": "supportsInterface",
      "outputs": [
        {
          "internalType": "bool",
          "name": "",
          "type": "bool"
        }
      ],
      "stateMutability": "view",
      "type": "function",
      "constant": true
    },
    {
      "inputs": [],
      "name": "symbol",
      "outputs": [
        {
          "internalType": "string",
          "name": "",
          "type": "string"
        }
      ],
      "stateMutability": "view",
      "type": "function",
      "constant": true
    },
    {
      "inputs": [
        {
          "internalType": "uint256",
          "name": "tokenId",
          "type": "uint256"
        }
      ],
      "name": "tokenURI",
      "outputs": [
        {
          "internalType": "string",
          "name": "",
          "type": "string"
        }
      ],
      "stateMutability": "view",
      "type": "function",
      "constant": true
    },
    {
      "inputs": [
        {
          "internalType": "address",
          "name": "from",
          "type": "address"
        },
        {
          "internalType": "address",
          "name": "to",
          "type": "address"
        },
        {
          "internalType": "uint256",
          "name": "tokenId",
          "type": "uint256"
        }
      ],
      "name": "transferFrom",
      "outputs": [],
      "stateMutability": "nonpayable",
      "type": "function"
    },
    {
      "inputs": [
        {
          "internalType": "address",
          "name": "newOwner",
          "type": "address"
        }
      ],
      "name": "transferOwnership",
      "outputs": [],
      "stateMutability": "nonpayable",
      "type": "function"
    },
    {
      "inputs": [],
      "name": "numberOfCards",
      "outputs": [
        {
          "internalType": "uint256",
          "name": "",
          "type": "uint256"
        }
      ],
      "stateMutability": "view",
      "type": "function",
      "constant": true
    },
    {
      "inputs": [
        {
          "internalType": "address",
          "name": "_address",
          "type": "address"
        }
      ],
      "name": "getValueAtOwnerToWin",
      "outputs": [
        {
          "internalType": "uint8",
          "name": "",
          "type": "uint8"
        }
      ],
      "stateMutability": "view",
      "type": "function",
      "constant": true
    },
    {
      "inputs": [
        {
          "internalType": "uint256",
          "name": "_cardId",
          "type": "uint256"
        }
      ],
      "name": "addCardInDeck",
      "outputs": [],
      "stateMutability": "nonpayable",
      "type": "function"
    },
    {
      "inputs": [
        {
          "internalType": "uint256",
          "name": "_cardId",
          "type": "uint256"
        }
      ],
      "name": "removeCardInDeck",
      "outputs": [],
      "stateMutability": "nonpayable",
      "type": "function"
    },
    {
      "inputs": [
        {
          "internalType": "address",
          "name": "_approved",
          "type": "address"
        },
        {
          "internalType": "uint256",
          "name": "_cardId",
          "type": "uint256"
        }
      ],
      "name": "approve",
      "outputs": [],
      "stateMutability": "nonpayable",
      "type": "function"
    },
    {
      "inputs": [
        {
          "internalType": "uint256",
          "name": "_cardId",
          "type": "uint256"
        }
      ],
      "name": "takeOwnership",
      "outputs": [],
      "stateMutability": "nonpayable",
      "type": "function"
    },
    {
      "inputs": [
        {
          "internalType": "address",
          "name": "adrj1",
          "type": "address"
        },
        {
          "internalType": "address",
          "name": "adrj2",
          "type": "address"
        }
      ],
      "name": "_cardBattle",
      "outputs": [],
      "stateMutability": "nonpayable",
      "type": "function"
    },
    {
      "inputs": [
        {
          "internalType": "address",
          "name": "_owner",
          "type": "address"
        }
      ],
      "name": "getCardsByOwner",
      "outputs": [
        {
          "internalType": "uint256[]",
          "name": "",
          "type": "uint256[]"
        }
      ],
      "stateMutability": "view",
      "type": "function",
      "constant": true
    },
    {
      "inputs": [],
      "name": "createRandomCard",
      "outputs": [],
      "stateMutability": "payable",
      "type": "function",
      "payable": true
    }
  ],
  "bytecode": "0x60806040526010600d55600d54600a6200001a9190620003b0565b600e553480156200002a57600080fd5b50604051806020016040528060008152506040518060200160405280600081525081600090805190602001906200006392919062000173565b5080600190805190602001906200007c92919062000173565b5050506200009f62000093620000a560201b60201c565b620000ad60201b60201c565b62000465565b600033905090565b6000600660009054906101000a900473ffffffffffffffffffffffffffffffffffffffff16905081600660006101000a81548173ffffffffffffffffffffffffffffffffffffffff021916908373ffffffffffffffffffffffffffffffffffffffff1602179055508173ffffffffffffffffffffffffffffffffffffffff168173ffffffffffffffffffffffffffffffffffffffff167f8be0079c531659141344cd1fd0a4f28419497f9722a3daafe3b4186f6b6457e060405160405180910390a35050565b828054620001819062000430565b90600052602060002090601f016020900481019282620001a55760008555620001f1565b82601f10620001c057805160ff1916838001178555620001f1565b82800160010185558215620001f1579182015b82811115620001f0578251825591602001919060010190620001d3565b5b50905062000200919062000204565b5090565b5b808211156200021f57600081600090555060010162000205565b5090565b7f4e487b7100000000000000000000000000000000000000000000000000000000600052601160045260246000fd5b60008160011c9050919050565b6000808291508390505b6001851115620002b15780860481111562000289576200028862000223565b5b6001851615620002995780820291505b8081029050620002a98562000252565b945062000269565b94509492505050565b600082620002cc57600190506200039f565b81620002dc57600090506200039f565b8160018114620002f55760028114620003005762000336565b60019150506200039f565b60ff84111562000315576200031462000223565b5b8360020a9150848211156200032f576200032e62000223565b5b506200039f565b5060208310610133831016604e8410600b8410161715620003705782820a9050838111156200036a576200036962000223565b5b6200039f565b6200037f84848460016200025f565b9250905081840481111562000399576200039862000223565b5b81810290505b9392505050565b6000819050919050565b6000620003bd82620003a6565b9150620003ca83620003a6565b9250620003f97fffffffffffffffffffffffffffffffffffffffffffffffffffffffffffffffff8484620002ba565b905092915050565b7f4e487b7100000000000000000000000000000000000000000000000000000000600052602260045260246000fd5b600060028204905060018216806200044957607f821691505b6020821081036200045f576200045e62000401565b5b50919050565b61391d80620004756000396000f3fe6080604052600436106101815760003560e01c80638da5cb5b116100d1578063c1ae021e1161008a578063eba73c7c11610064578063eba73c7c146105a4578063f2fde38b146105e1578063fb3f77661461060a578063ffb976ec1461061457610181565b8063c1ae021e146104ed578063c87b56dd1461052a578063e985e9c51461056757610181565b80638da5cb5b146103dd5780638dc107681461040857806395d89b4114610447578063a22cb46514610472578063b2e6ceeb1461049b578063b88d4fde146104c457610181565b806342842e0e1161013e578063715018a611610118578063715018a614610349578063771ab73c1461036057806377cf99451461038957806381efd708146103b257610181565b806342842e0e146102a65780636352211e146102cf57806370a082311461030c57610181565b806301ffc9a71461018657806306fdde03146101c3578063081812fc146101ee578063095ea7b31461022b578063177116991461025457806323b872dd1461027d575b600080fd5b34801561019257600080fd5b506101ad60048036038101906101a8919061268f565b610651565b6040516101ba91906126d7565b60405180910390f35b3480156101cf57600080fd5b506101d8610733565b6040516101e5919061278b565b60405180910390f35b3480156101fa57600080fd5b50610215600480360381019061021091906127e3565b6107c5565b6040516102229190612851565b60405180910390f35b34801561023757600080fd5b50610252600480360381019061024d9190612898565b61084a565b005b34801561026057600080fd5b5061027b600480360381019061027691906127e3565b610968565b005b34801561028957600080fd5b506102a4600480360381019061029f91906128d8565b610ae6565b005b3480156102b257600080fd5b506102cd60048036038101906102c891906128d8565b610b46565b005b3480156102db57600080fd5b506102f660048036038101906102f191906127e3565b610b66565b6040516103039190612851565b60405180910390f35b34801561031857600080fd5b50610333600480360381019061032e919061292b565b610c17565b6040516103409190612967565b60405180910390f35b34801561035557600080fd5b5061035e610cce565b005b34801561036c57600080fd5b50610387600480360381019061038291906127e3565b610d56565b005b34801561039557600080fd5b506103b060048036038101906103ab9190612982565b610ed5565b005b3480156103be57600080fd5b506103c76110d7565b6040516103d49190612967565b60405180910390f35b3480156103e957600080fd5b506103f26110e4565b6040516103ff9190612851565b60405180910390f35b34801561041457600080fd5b5061042f600480360381019061042a91906127e3565b61110e565b60405161043e939291906129de565b60405180910390f35b34801561045357600080fd5b5061045c611162565b604051610469919061278b565b60405180910390f35b34801561047e57600080fd5b5061049960048036038101906104949190612a41565b6111f4565b005b3480156104a757600080fd5b506104c260048036038101906104bd91906127e3565b61120a565b005b3480156104d057600080fd5b506104eb60048036038101906104e69190612bb6565b611291565b005b3480156104f957600080fd5b50610514600480360381019061050f919061292b565b6112f3565b6040516105219190612c39565b60405180910390f35b34801561053657600080fd5b50610551600480360381019061054c91906127e3565b611349565b60405161055e919061278b565b60405180910390f35b34801561057357600080fd5b5061058e60048036038101906105899190612982565b6113f0565b60405161059b91906126d7565b60405180910390f35b3480156105b057600080fd5b506105cb60048036038101906105c6919061292b565b611484565b6040516105d89190612d12565b60405180910390f35b3480156105ed57600080fd5b506106086004803603810190610603919061292b565b6115e6565b005b6106126116dd565b005b34801561062057600080fd5b5061063b600480360381019061063691906127e3565b6116f6565b6040516106489190612851565b60405180910390f35b60007f80ac58cd000000000000000000000000000000000000000000000000000000007bffffffffffffffffffffffffffffffffffffffffffffffffffffffff1916827bffffffffffffffffffffffffffffffffffffffffffffffffffffffff1916148061071c57507f5b5e139f000000000000000000000000000000000000000000000000000000007bffffffffffffffffffffffffffffffffffffffffffffffffffffffff1916827bffffffffffffffffffffffffffffffffffffffffffffffffffffffff1916145b8061072c575061072b82611729565b5b9050919050565b60606000805461074290612d63565b80601f016020809104026020016040519081016040528092919081815260200182805461076e90612d63565b80156107bb5780601f10610790576101008083540402835291602001916107bb565b820191906000526020600020905b81548152906001019060200180831161079e57829003601f168201915b5050505050905090565b60006107d082611793565b61080f576040517f08c379a000000000000000000000000000000000000000000000000000000000815260040161080690612e06565b60405180910390fd5b6004600083815260200190815260200160002060009054906101000a900473ffffffffffffffffffffffffffffffffffffffff169050919050565b806008600082815260200190815260200160002060009054906101000a900473ffffffffffffffffffffffffffffffffffffffff1673ffffffffffffffffffffffffffffffffffffffff163373ffffffffffffffffffffffffffffffffffffffff16146108b657600080fd5b82600c600084815260200190815260200160002060006101000a81548173ffffffffffffffffffffffffffffffffffffffff021916908373ffffffffffffffffffffffffffffffffffffffff160217905550818373ffffffffffffffffffffffffffffffffffffffff163373ffffffffffffffffffffffffffffffffffffffff167f8c5be1e5ebec7d5bd14f71427d1e84f3dd0314c0f7b2291e5b200ac8c7c3b92560405160405180910390a4505050565b806008600082815260200190815260200160002060009054906101000a900473ffffffffffffffffffffffffffffffffffffffff1673ffffffffffffffffffffffffffffffffffffffff163373ffffffffffffffffffffffffffffffffffffffff16146109d457600080fd5b600a8060003373ffffffffffffffffffffffffffffffffffffffff1673ffffffffffffffffffffffffffffffffffffffff16815260200190815260200160002060009054906101000a900460ff1660ff1610610a2f57600080fd5b600160078381548110610a4557610a44612e26565b5b906000526020600020906002020160010160016101000a81548160ff021916908315150217905550600a60003373ffffffffffffffffffffffffffffffffffffffff1673ffffffffffffffffffffffffffffffffffffffff168152602001908152602001600020600081819054906101000a900460ff1680929190610ac990612e84565b91906101000a81548160ff021916908360ff160217905550505050565b610af7610af16117ff565b82611807565b610b36576040517f08c379a0000000000000000000000000000000000000000000000000000000008152600401610b2d90612f1f565b60405180910390fd5b610b418383836118e5565b505050565b610b6183838360405180602001604052806000815250611291565b505050565b6000806002600084815260200190815260200160002060009054906101000a900473ffffffffffffffffffffffffffffffffffffffff169050600073ffffffffffffffffffffffffffffffffffffffff168173ffffffffffffffffffffffffffffffffffffffff1603610c0e576040517f08c379a0000000000000000000000000000000000000000000000000000000008152600401610c0590612fb1565b60405180910390fd5b80915050919050565b60008073ffffffffffffffffffffffffffffffffffffffff168273ffffffffffffffffffffffffffffffffffffffff1603610c87576040517f08c379a0000000000000000000000000000000000000000000000000000000008152600401610c7e90613043565b60405180910390fd5b600360008373ffffffffffffffffffffffffffffffffffffffff1673ffffffffffffffffffffffffffffffffffffffff168152602001908152602001600020549050919050565b610cd66117ff565b73ffffffffffffffffffffffffffffffffffffffff16610cf46110e4565b73ffffffffffffffffffffffffffffffffffffffff1614610d4a576040517f08c379a0000000000000000000000000000000000000000000000000000000008152600401610d41906130af565b60405180910390fd5b610d546000611b4b565b565b806008600082815260200190815260200160002060009054906101000a900473ffffffffffffffffffffffffffffffffffffffff1673ffffffffffffffffffffffffffffffffffffffff163373ffffffffffffffffffffffffffffffffffffffff1614610dc257600080fd5b6000600a60003373ffffffffffffffffffffffffffffffffffffffff1673ffffffffffffffffffffffffffffffffffffffff16815260200190815260200160002060009054906101000a900460ff1660ff1611610e1e57600080fd5b600060078381548110610e3457610e33612e26565b5b906000526020600020906002020160010160016101000a81548160ff021916908315150217905550600a60003373ffffffffffffffffffffffffffffffffffffffff1673ffffffffffffffffffffffffffffffffffffffff168152602001908152602001600020600081819054906101000a900460ff1680929190610eb8906130cf565b91906101000a81548160ff021916908360ff160217905550505050565b6000610ee083611c11565b9050610eeb81611db6565b6000610ef683611c11565b9050610f0181611db6565b6000805b610f1184518451611ea4565b811015610fc657828181518110610f2b57610f2a612e26565b5b6020026020010151848281518110610f4657610f45612e26565b5b60200260200101511115610f67578180610f5f90613105565b925050610fb3565b828181518110610f7a57610f79612e26565b5b6020026020010151848281518110610f9557610f94612e26565b5b60200260200101511015610fb2578180610fae9061312e565b9250505b5b8080610fbe90613176565b915050610f05565b5060008160000b131561104d57600b60008673ffffffffffffffffffffffffffffffffffffffff1673ffffffffffffffffffffffffffffffffffffffff168152602001908152602001600020600081819054906101000a900460ff168092919061102f90612e84565b91906101000a81548160ff021916908360ff160217905550506110d0565b60008160000b12156110cf57600b60008573ffffffffffffffffffffffffffffffffffffffff1673ffffffffffffffffffffffffffffffffffffffff168152602001908152602001600020600081819054906101000a900460ff16809291906110b590612e84565b91906101000a81548160ff021916908360ff160217905550505b5b5050505050565b6000600780549050905090565b6000600660009054906101000a900473ffffffffffffffffffffffffffffffffffffffff16905090565b6007818154811061111e57600080fd5b90600052602060002090600202016000915090508060000154908060010160009054906101000a900460ff16908060010160019054906101000a900460ff16905083565b60606001805461117190612d63565b80601f016020809104026020016040519081016040528092919081815260200182805461119d90612d63565b80156111ea5780601f106111bf576101008083540402835291602001916111ea565b820191906000526020600020905b8154815290600101906020018083116111cd57829003601f168201915b5050505050905090565b6112066111ff6117ff565b8383611ebe565b5050565b3373ffffffffffffffffffffffffffffffffffffffff16600c600083815260200190815260200160002060009054906101000a900473ffffffffffffffffffffffffffffffffffffffff1673ffffffffffffffffffffffffffffffffffffffff161461127557600080fd5b600061128082610b66565b905061128d8133846118e5565b5050565b6112a261129c6117ff565b83611807565b6112e1576040517f08c379a00000000000000000000000000000000000000000000000000000000081526004016112d890612f1f565b60405180910390fd5b6112ed8484848461202a565b50505050565b6000600b60008373ffffffffffffffffffffffffffffffffffffffff1673ffffffffffffffffffffffffffffffffffffffff16815260200190815260200160002060009054906101000a900460ff169050919050565b606061135482611793565b611393576040517f08c379a000000000000000000000000000000000000000000000000000000000815260040161138a90613230565b60405180910390fd5b600061139d612086565b905060008151116113bd57604051806020016040528060008152506113e8565b806113c78461209d565b6040516020016113d892919061328c565b6040516020818303038152906040525b915050919050565b6000600560008473ffffffffffffffffffffffffffffffffffffffff1673ffffffffffffffffffffffffffffffffffffffff16815260200190815260200160002060008373ffffffffffffffffffffffffffffffffffffffff1673ffffffffffffffffffffffffffffffffffffffff16815260200190815260200160002060009054906101000a900460ff16905092915050565b60606000600960008473ffffffffffffffffffffffffffffffffffffffff1673ffffffffffffffffffffffffffffffffffffffff16815260200190815260200160002060009054906101000a900460ff1660ff1667ffffffffffffffff8111156114f1576114f0612a8b565b5b60405190808252806020026020018201604052801561151f5781602001602082028036833780820191505090505b5090506000805b6007805490508110156115db578473ffffffffffffffffffffffffffffffffffffffff166008600083815260200190815260200160002060009054906101000a900473ffffffffffffffffffffffffffffffffffffffff1673ffffffffffffffffffffffffffffffffffffffff16036115c857808383815181106115ad576115ac612e26565b5b60200260200101818152505081806115c490613176565b9250505b80806115d390613176565b915050611526565b508192505050919050565b6115ee6117ff565b73ffffffffffffffffffffffffffffffffffffffff1661160c6110e4565b73ffffffffffffffffffffffffffffffffffffffff1614611662576040517f08c379a0000000000000000000000000000000000000000000000000000000008152600401611659906130af565b60405180910390fd5b600073ffffffffffffffffffffffffffffffffffffffff168173ffffffffffffffffffffffffffffffffffffffff16036116d1576040517f08c379a00000000000000000000000000000000000000000000000000000000081526004016116c890613322565b60405180910390fd5b6116da81611b4b565b50565b6103e83410156116ec57600080fd5b6116f46121fd565b565b60086020528060005260406000206000915054906101000a900473ffffffffffffffffffffffffffffffffffffffff1681565b60007f01ffc9a7000000000000000000000000000000000000000000000000000000007bffffffffffffffffffffffffffffffffffffffffffffffffffffffff1916827bffffffffffffffffffffffffffffffffffffffffffffffffffffffff1916149050919050565b60008073ffffffffffffffffffffffffffffffffffffffff166002600084815260200190815260200160002060009054906101000a900473ffffffffffffffffffffffffffffffffffffffff1673ffffffffffffffffffffffffffffffffffffffff1614159050919050565b600033905090565b600061181282611793565b611851576040517f08c379a0000000000000000000000000000000000000000000000000000000008152600401611848906133b4565b60405180910390fd5b600061185c83610b66565b90508073ffffffffffffffffffffffffffffffffffffffff168473ffffffffffffffffffffffffffffffffffffffff1614806118cb57508373ffffffffffffffffffffffffffffffffffffffff166118b3846107c5565b73ffffffffffffffffffffffffffffffffffffffff16145b806118dc57506118db81856113f0565b5b91505092915050565b8273ffffffffffffffffffffffffffffffffffffffff1661190582610b66565b73ffffffffffffffffffffffffffffffffffffffff161461195b576040517f08c379a000000000000000000000000000000000000000000000000000000000815260040161195290613446565b60405180910390fd5b600073ffffffffffffffffffffffffffffffffffffffff168273ffffffffffffffffffffffffffffffffffffffff16036119ca576040517f08c379a00000000000000000000000000000000000000000000000000000000081526004016119c1906134d8565b60405180910390fd5b6119d58383836123b6565b6119e06000826123bb565b6001600360008573ffffffffffffffffffffffffffffffffffffffff1673ffffffffffffffffffffffffffffffffffffffff1681526020019081526020016000206000828254611a3091906134f8565b925050819055506001600360008473ffffffffffffffffffffffffffffffffffffffff1673ffffffffffffffffffffffffffffffffffffffff1681526020019081526020016000206000828254611a87919061352c565b92505081905550816002600083815260200190815260200160002060006101000a81548173ffffffffffffffffffffffffffffffffffffffff021916908373ffffffffffffffffffffffffffffffffffffffff160217905550808273ffffffffffffffffffffffffffffffffffffffff168473ffffffffffffffffffffffffffffffffffffffff167fddf252ad1be2c89b69c2b068fc378daa952ba7f163c4a11628f55a4df523b3ef60405160405180910390a4611b46838383612474565b505050565b6000600660009054906101000a900473ffffffffffffffffffffffffffffffffffffffff16905081600660006101000a81548173ffffffffffffffffffffffffffffffffffffffff021916908373ffffffffffffffffffffffffffffffffffffffff1602179055508173ffffffffffffffffffffffffffffffffffffffff168173ffffffffffffffffffffffffffffffffffffffff167f8be0079c531659141344cd1fd0a4f28419497f9722a3daafe3b4186f6b6457e060405160405180910390a35050565b60606000600a60008473ffffffffffffffffffffffffffffffffffffffff1673ffffffffffffffffffffffffffffffffffffffff16815260200190815260200160002060009054906101000a900460ff1660ff1667ffffffffffffffff811115611c7e57611c7d612a8b565b5b604051908082528060200260200182016040528015611cac5781602001602082028036833780820191505090505b5090506000805b600780549050811015611dab578473ffffffffffffffffffffffffffffffffffffffff166008600083815260200190815260200160002060009054906101000a900473ffffffffffffffffffffffffffffffffffffffff1673ffffffffffffffffffffffffffffffffffffffff16148015611d6457506001151560078281548110611d4157611d40612e26565b5b906000526020600020906002020160010160019054906101000a900460ff161515145b15611d985780838381518110611d7d57611d7c612e26565b5b6020026020010181815250508180611d9490613176565b9250505b8080611da390613176565b915050611cb3565b508192505050919050565b60005b8151811015611ea0576000818351611dd191906134f8565b42604051602001611de291906135a3565b6040516020818303038152906040528051906020012060001c611e0591906135ed565b82611e10919061352c565b90506000838281518110611e2757611e26612e26565b5b60200260200101519050838381518110611e4457611e43612e26565b5b6020026020010151848381518110611e5f57611e5e612e26565b5b60200260200101818152505080848481518110611e7f57611e7e612e26565b5b60200260200101818152505050508080611e9890613176565b915050611db9565b5050565b600081831115611eb45781611eb6565b825b905092915050565b8173ffffffffffffffffffffffffffffffffffffffff168373ffffffffffffffffffffffffffffffffffffffff1603611f2c576040517f08c379a0000000000000000000000000000000000000000000000000000000008152600401611f239061366a565b60405180910390fd5b80600560008573ffffffffffffffffffffffffffffffffffffffff1673ffffffffffffffffffffffffffffffffffffffff16815260200190815260200160002060008473ffffffffffffffffffffffffffffffffffffffff1673ffffffffffffffffffffffffffffffffffffffff16815260200190815260200160002060006101000a81548160ff0219169083151502179055508173ffffffffffffffffffffffffffffffffffffffff168373ffffffffffffffffffffffffffffffffffffffff167f17307eab39ab6107e8899845ad3d59bd9653f200f220920489ca2b5937696c318360405161201d91906126d7565b60405180910390a3505050565b6120358484846118e5565b61204184848484612479565b612080576040517f08c379a0000000000000000000000000000000000000000000000000000000008152600401612077906136fc565b60405180910390fd5b50505050565b606060405180602001604052806000815250905090565b6060600082036120e4576040518060400160405280600181526020017f300000000000000000000000000000000000000000000000000000000000000081525090506121f8565b600082905060005b600082146121165780806120ff90613176565b915050600a8261210f919061371c565b91506120ec565b60008167ffffffffffffffff81111561213257612131612a8b565b5b6040519080825280601f01601f1916602001820160405280156121645781602001600182028036833780820191505090505b5090505b600085146121f15760018261217d91906134f8565b9150600a8561218c91906135ed565b6030612198919061352c565b60f81b8183815181106121ae576121ad612e26565b5b60200101907effffffffffffffffffffffffffffffffffffffffffffffffffffffffffffff1916908160001a905350600a856121ea919061371c565b9450612168565b8093505050505b919050565b6007604051806060016040528060018152602001600860ff1681526020016000151581525090806001815401808255809150506001900390600052602060002090600202016000909190919091506000820151816000015560208201518160010160006101000a81548160ff021916908360ff16021790555060408201518160010160016101000a81548160ff0219169083151502179055505050600060016007805490506122ac91906134f8565b9050336008600083815260200190815260200160002060006101000a81548173ffffffffffffffffffffffffffffffffffffffff021916908373ffffffffffffffffffffffffffffffffffffffff160217905550600960003373ffffffffffffffffffffffffffffffffffffffff1673ffffffffffffffffffffffffffffffffffffffff168152602001908152602001600020600081819054906101000a900460ff168092919061235c90612e84565b91906101000a81548160ff021916908360ff160217905550507ff0388f4ea4ba854d3517606a792b6ff1fc4d5b7e64d01d0a0af5f3bf81f05b296001600860006040516123ab939291906137cd565b60405180910390a150565b505050565b816004600083815260200190815260200160002060006101000a81548173ffffffffffffffffffffffffffffffffffffffff021916908373ffffffffffffffffffffffffffffffffffffffff160217905550808273ffffffffffffffffffffffffffffffffffffffff1661242e83610b66565b73ffffffffffffffffffffffffffffffffffffffff167f8c5be1e5ebec7d5bd14f71427d1e84f3dd0314c0f7b2291e5b200ac8c7c3b92560405160405180910390a45050565b505050565b600061249a8473ffffffffffffffffffffffffffffffffffffffff16612600565b156125f3578373ffffffffffffffffffffffffffffffffffffffff1663150b7a026124c36117ff565b8786866040518563ffffffff1660e01b81526004016124e59493929190613859565b6020604051808303816000875af192505050801561252157506040513d601f19601f8201168201806040525081019061251e91906138ba565b60015b6125a3573d8060008114612551576040519150601f19603f3d011682016040523d82523d6000602084013e612556565b606091505b50600081510361259b576040517f08c379a0000000000000000000000000000000000000000000000000000000008152600401612592906136fc565b60405180910390fd5b805181602001fd5b63150b7a0260e01b7bffffffffffffffffffffffffffffffffffffffffffffffffffffffff1916817bffffffffffffffffffffffffffffffffffffffffffffffffffffffff1916149150506125f8565b600190505b949350505050565b6000808273ffffffffffffffffffffffffffffffffffffffff163b119050919050565b6000604051905090565b600080fd5b600080fd5b60007fffffffff0000000000000000000000000000000000000000000000000000000082169050919050565b61266c81612637565b811461267757600080fd5b50565b60008135905061268981612663565b92915050565b6000602082840312156126a5576126a461262d565b5b60006126b38482850161267a565b91505092915050565b60008115159050919050565b6126d1816126bc565b82525050565b60006020820190506126ec60008301846126c8565b92915050565b600081519050919050565b600082825260208201905092915050565b60005b8381101561272c578082015181840152602081019050612711565b8381111561273b576000848401525b50505050565b6000601f19601f8301169050919050565b600061275d826126f2565b61276781856126fd565b935061277781856020860161270e565b61278081612741565b840191505092915050565b600060208201905081810360008301526127a58184612752565b905092915050565b6000819050919050565b6127c0816127ad565b81146127cb57600080fd5b50565b6000813590506127dd816127b7565b92915050565b6000602082840312156127f9576127f861262d565b5b6000612807848285016127ce565b91505092915050565b600073ffffffffffffffffffffffffffffffffffffffff82169050919050565b600061283b82612810565b9050919050565b61284b81612830565b82525050565b60006020820190506128666000830184612842565b92915050565b61287581612830565b811461288057600080fd5b50565b6000813590506128928161286c565b92915050565b600080604083850312156128af576128ae61262d565b5b60006128bd85828601612883565b92505060206128ce858286016127ce565b9150509250929050565b6000806000606084860312156128f1576128f061262d565b5b60006128ff86828701612883565b935050602061291086828701612883565b9250506040612921868287016127ce565b9150509250925092565b6000602082840312156129415761294061262d565b5b600061294f84828501612883565b91505092915050565b612961816127ad565b82525050565b600060208201905061297c6000830184612958565b92915050565b600080604083850312156129995761299861262d565b5b60006129a785828601612883565b92505060206129b885828601612883565b9150509250929050565b600060ff82169050919050565b6129d8816129c2565b82525050565b60006060820190506129f36000830186612958565b612a0060208301856129cf565b612a0d60408301846126c8565b949350505050565b612a1e816126bc565b8114612a2957600080fd5b50565b600081359050612a3b81612a15565b92915050565b60008060408385031215612a5857612a5761262d565b5b6000612a6685828601612883565b9250506020612a7785828601612a2c565b9150509250929050565b600080fd5b600080fd5b7f4e487b7100000000000000000000000000000000000000000000000000000000600052604160045260246000fd5b612ac382612741565b810181811067ffffffffffffffff82111715612ae257612ae1612a8b565b5b80604052505050565b6000612af5612623565b9050612b018282612aba565b919050565b600067ffffffffffffffff821115612b2157612b20612a8b565b5b612b2a82612741565b9050602081019050919050565b82818337600083830152505050565b6000612b59612b5484612b06565b612aeb565b905082815260208101848484011115612b7557612b74612a86565b5b612b80848285612b37565b509392505050565b600082601f830112612b9d57612b9c612a81565b5b8135612bad848260208601612b46565b91505092915050565b60008060008060808587031215612bd057612bcf61262d565b5b6000612bde87828801612883565b9450506020612bef87828801612883565b9350506040612c00878288016127ce565b925050606085013567ffffffffffffffff811115612c2157612c20612632565b5b612c2d87828801612b88565b91505092959194509250565b6000602082019050612c4e60008301846129cf565b92915050565b600081519050919050565b600082825260208201905092915050565b6000819050602082019050919050565b612c89816127ad565b82525050565b6000612c9b8383612c80565b60208301905092915050565b6000602082019050919050565b6000612cbf82612c54565b612cc98185612c5f565b9350612cd483612c70565b8060005b83811015612d05578151612cec8882612c8f565b9750612cf783612ca7565b925050600181019050612cd8565b5085935050505092915050565b60006020820190508181036000830152612d2c8184612cb4565b905092915050565b7f4e487b7100000000000000000000000000000000000000000000000000000000600052602260045260246000fd5b60006002820490506001821680612d7b57607f821691505b602082108103612d8e57612d8d612d34565b5b50919050565b7f4552433732313a20617070726f76656420717565727920666f72206e6f6e657860008201527f697374656e7420746f6b656e0000000000000000000000000000000000000000602082015250565b6000612df0602c836126fd565b9150612dfb82612d94565b604082019050919050565b60006020820190508181036000830152612e1f81612de3565b9050919050565b7f4e487b7100000000000000000000000000000000000000000000000000000000600052603260045260246000fd5b7f4e487b7100000000000000000000000000000000000000000000000000000000600052601160045260246000fd5b6000612e8f826129c2565b915060ff8203612ea257612ea1612e55565b5b600182019050919050565b7f4552433732313a207472616e736665722063616c6c6572206973206e6f74206f60008201527f776e6572206e6f7220617070726f766564000000000000000000000000000000602082015250565b6000612f096031836126fd565b9150612f1482612ead565b604082019050919050565b60006020820190508181036000830152612f3881612efc565b9050919050565b7f4552433732313a206f776e657220717565727920666f72206e6f6e657869737460008201527f656e7420746f6b656e0000000000000000000000000000000000000000000000602082015250565b6000612f9b6029836126fd565b9150612fa682612f3f565b604082019050919050565b60006020820190508181036000830152612fca81612f8e565b9050919050565b7f4552433732313a2062616c616e636520717565727920666f7220746865207a6560008201527f726f206164647265737300000000000000000000000000000000000000000000602082015250565b600061302d602a836126fd565b915061303882612fd1565b604082019050919050565b6000602082019050818103600083015261305c81613020565b9050919050565b7f4f776e61626c653a2063616c6c6572206973206e6f7420746865206f776e6572600082015250565b60006130996020836126fd565b91506130a482613063565b602082019050919050565b600060208201905081810360008301526130c88161308c565b9050919050565b60006130da826129c2565b9150600082036130ed576130ec612e55565b5b600182039050919050565b60008160000b9050919050565b6000613110826130f8565b9150607f820361312357613122612e55565b5b600182019050919050565b6000613139826130f8565b91507fffffffffffffffffffffffffffffffffffffffffffffffffffffffffffffff80820361316b5761316a612e55565b5b600182039050919050565b6000613181826127ad565b91507fffffffffffffffffffffffffffffffffffffffffffffffffffffffffffffffff82036131b3576131b2612e55565b5b600182019050919050565b7f4552433732314d657461646174613a2055524920717565727920666f72206e6f60008201527f6e6578697374656e7420746f6b656e0000000000000000000000000000000000602082015250565b600061321a602f836126fd565b9150613225826131be565b604082019050919050565b600060208201905081810360008301526132498161320d565b9050919050565b600081905092915050565b6000613266826126f2565b6132708185613250565b935061328081856020860161270e565b80840191505092915050565b6000613298828561325b565b91506132a4828461325b565b91508190509392505050565b7f4f776e61626c653a206e6577206f776e657220697320746865207a65726f206160008201527f6464726573730000000000000000000000000000000000000000000000000000602082015250565b600061330c6026836126fd565b9150613317826132b0565b604082019050919050565b6000602082019050818103600083015261333b816132ff565b9050919050565b7f4552433732313a206f70657261746f7220717565727920666f72206e6f6e657860008201527f697374656e7420746f6b656e0000000000000000000000000000000000000000602082015250565b600061339e602c836126fd565b91506133a982613342565b604082019050919050565b600060208201905081810360008301526133cd81613391565b9050919050565b7f4552433732313a207472616e736665722066726f6d20696e636f72726563742060008201527f6f776e6572000000000000000000000000000000000000000000000000000000602082015250565b60006134306025836126fd565b915061343b826133d4565b604082019050919050565b6000602082019050818103600083015261345f81613423565b9050919050565b7f4552433732313a207472616e7366657220746f20746865207a65726f2061646460008201527f7265737300000000000000000000000000000000000000000000000000000000602082015250565b60006134c26024836126fd565b91506134cd82613466565b604082019050919050565b600060208201905081810360008301526134f1816134b5565b9050919050565b6000613503826127ad565b915061350e836127ad565b92508282101561352157613520612e55565b5b828203905092915050565b6000613537826127ad565b9150613542836127ad565b9250827fffffffffffffffffffffffffffffffffffffffffffffffffffffffffffffffff0382111561357757613576612e55565b5b828201905092915050565b6000819050919050565b61359d613598826127ad565b613582565b82525050565b60006135af828461358c565b60208201915081905092915050565b7f4e487b7100000000000000000000000000000000000000000000000000000000600052601260045260246000fd5b60006135f8826127ad565b9150613603836127ad565b925082613613576136126135be565b5b828206905092915050565b7f4552433732313a20617070726f766520746f2063616c6c657200000000000000600082015250565b60006136546019836126fd565b915061365f8261361e565b602082019050919050565b6000602082019050818103600083015261368381613647565b9050919050565b7f4552433732313a207472616e7366657220746f206e6f6e20455243373231526560008201527f63656976657220696d706c656d656e7465720000000000000000000000000000602082015250565b60006136e66032836126fd565b91506136f18261368a565b604082019050919050565b60006020820190508181036000830152613715816136d9565b9050919050565b6000613727826127ad565b9150613732836127ad565b925082613742576137416135be565b5b828204905092915050565b6000819050919050565b6000819050919050565b600061377c6137776137728461374d565b613757565b6127ad565b9050919050565b61378c81613761565b82525050565b6000819050919050565b60006137b76137b26137ad84613792565b613757565b6129c2565b9050919050565b6137c78161379c565b82525050565b60006060820190506137e26000830186613783565b6137ef60208301856137be565b6137fc60408301846126c8565b949350505050565b600081519050919050565b600082825260208201905092915050565b600061382b82613804565b613835818561380f565b935061384581856020860161270e565b61384e81612741565b840191505092915050565b600060808201905061386e6000830187612842565b61387b6020830186612842565b6138886040830185612958565b818103606083015261389a8184613820565b905095945050505050565b6000815190506138b481612663565b92915050565b6000602082840312156138d0576138cf61262d565b5b60006138de848285016138a5565b9150509291505056fea2646970667358221220d8d5d4b30a611103967ab9111ea0cb1def03059f1722726a00c962b1d06c491664736f6c634300080d0033",
  "immutableReferences": {},
  "source": "// SPDX-License-Identifier: MIT\n//  La licence permet de prciser notre position juridique sur notre code, elle est obligatoire\npragma solidity ^0.8.9;\n// versions de solidity supportes\n\nimport \"@openzeppelin/contracts/token/ERC721/ERC721.sol\";\n//importation du contract ERC721 de openzeppelin\n//  pour qu'il marche il faut installer les contracts avec npm install @openzeppelin/contracts\n// il faut aussi configurer le \"solidity.defaultCompiler\": \"localNodeModule\" dans les paramtres vscode\nimport \"@openzeppelin/contracts/access/Ownable.sol\";\nimport \"./safemath.sol\";\n\n\ncontract Barricard is ERC721, Ownable {\n    constructor() ERC721(\"\",\"\") {}\n\n    struct Card {\n        uint id;\n        uint8 puissance;\n        bool isInDeck;\n    }\n  using SafeMath for uint256;\n  using SafeMath32 for uint32;\n  using SafeMath16 for uint16;\n\n\n    Card[] public cards;\n\n    mapping (uint => address) public cardToOwner;\n    mapping (address => uint8) ownerCardCount;\n    mapping (address => uint8) ownerCardInDeckCount;\n    mapping (address => uint8) OwnerToWin;\n    mapping (uint => address) CardApprovals;\n\n    modifier onlyOwnerOf(uint _cardId) {\n        require(msg.sender == cardToOwner[_cardId]);\n        _;\n    }\n    function numberOfCards() public view returns(uint256) {\n        return cards.length;\n    }\n\n    function getValueAtOwnerToWin(address _address) public view returns(uint8) {\n        return OwnerToWin[_address];\n}\n\n    function addCardInDeck(uint _cardId) external onlyOwnerOf(_cardId){ //passer une carte en parametre\n        //Check si ownerCardInDeckCount est plus petit que 10 (taille max du deck)\n        //Passer la variable isInDeck  True (revient a ajouter la carte au Deck)\n        //incrementer ownerCardInDeckCount de 1\n        require(ownerCardInDeckCount[msg.sender]<10);\n        cards[_cardId].isInDeck = true;\n        ownerCardInDeckCount[msg.sender]++;\n    }\n\n    function removeCardInDeck(uint _cardId) external onlyOwnerOf(_cardId) { //passer une carte en parametre\n        //Check si ownerCardInDeckCount est plus grand que 0 (taille min du deck)\n        //Passer la variable isInDeck de la carte  False (revient a supprimer la carte du Deck)\n        //decrementer ownerCardInDeckCount de 1\n        require(ownerCardInDeckCount[msg.sender]>0);\n        cards[_cardId].isInDeck = false;\n        ownerCardInDeckCount[msg.sender]--;\n    }\n\n      function approve(address _approved, uint256 _cardId) public override onlyOwnerOf(_cardId) {\n      CardApprovals[_cardId] = _approved;\n      emit Approval(msg.sender, _approved, _cardId);\n    }\n\n    function takeOwnership(uint256 _cardId) public {\n    require(CardApprovals[_cardId] == msg.sender);\n    address owner = ownerOf(_cardId);\n    _transfer(owner, msg.sender, _cardId);\n  }\n\n    //problme : pour afficher les cartes du Deck c'est compliqu (il faut parcourir toutes les cartes \n    //  et selectionner seulement celles qui ont isInDeck a True\n    function _cardShuffle(uint[] memory deck) internal view {\n        //Deux possibilites\n        //ajouter un variable  la structure de Card pour indiquer son rang dans le deck\n        //ne pas ecrire cette fonction et effectuer le choix aleatoire pdt cardBattle \n        //  -> prendre une carte alatoire parmis celle du joueur qui ont isInDeck  True et n'ont pas encore ete jou\n        //  Besoin d'ajouter une varaible : hasBeenPlayed dans dans la struct de card\n\n        for (uint256 i = 0; i < deck.length; i++) {\n            uint256 n = i + uint256(keccak256(abi.encodePacked(block.timestamp))) % (deck.length - i);\n            uint256 temp = deck[n];\n            deck[n] = deck[i];\n            deck[i] = temp;\n        }\n    }\n     function min(uint256 a, uint256 b) internal pure returns (uint256) {\n        return a <= b ? a : b;\n    }\n\n function _cardBattle(address adrj1, address adrj2) external { //address des deux joueurs \n        // Variable interne : compteur de point pour chaque joueur\n\n        //boucle x10 (ou max du nombre de carte dans les decks)\n            //comparer les cartes des deux joueurs et changer les variable internes en fonction\n        \n        //Retourner le resultat du match \n        //  (voir pour modifier un variable globale, peut etre plus securis)\n\n        uint[] memory deck1 = getCardsInDeckByOwner(adrj1);\n        _cardShuffle(deck1);\n        uint[] memory deck2 = getCardsInDeckByOwner(adrj2);\n        _cardShuffle(deck2);\n\n        int8 score = 0;\n\n        for (uint i = 0; i < min(deck1.length, deck2.length); i++){\n            if (deck1[i]>deck2[i]) {\n                score++;\n            }\n            else if (deck1[i]<deck2[i]){\n                score--;\n            }\n        }\n\n        if (score>0){\n            OwnerToWin[adrj1]++;\n        }\n        else if (score<0) {\n            OwnerToWin[adrj2]++;\n        }\n    }\n\n    function getCardsByOwner(address _owner) external view returns(uint[] memory) {\n        uint[] memory result = new uint[](ownerCardCount[_owner]);\n        uint counter = 0;\n        for (uint i = 0; i < cards.length; i++) {\n            if (cardToOwner[i] == _owner) {\n                result[counter] = i;\n                counter++;\n            }\n        }\n        return result;\n    }\n\n    function getCardsInDeckByOwner(address _owner) internal view returns(uint[] memory) {\n        uint[] memory result = new uint[](ownerCardInDeckCount[_owner]);\n        uint counter = 0;\n        for (uint i = 0; i < cards.length; i++) {\n            if (cardToOwner[i] == _owner && cards[i].isInDeck == true) {\n                result[counter] = i;\n                counter++;\n            }\n        }\n        return result;\n    }\n\n  event NewCard(uint _id,uint8 _puissance, bool _isInDeck);\n  uint puissanceDigits = 16;\n  uint puissanceModulus = 10 ** puissanceDigits;\n\n\n  function _createCard() internal {\n    cards.push(Card(1,8,false));\n    uint id = cards.length - 1;\n    cardToOwner[id] = msg.sender;\n    ownerCardCount[msg.sender] ++;\n    emit NewCard(1,8,false);\n  }\n\n  function createRandomCard() payable public {\n    //require(ownerCardCount[msg.sender] == 0);\n    require(msg.value>=1000);\n    _createCard();\n  }\n\n}\n",
  "sourcePath": "/Users/arthurtheillier/Documents/BarriCard/contracts/Barricard.sol",
  "compiler": {
    "name": "solc",
    "version": "0.8.13+commit.abaa5c0e.Emscripten.clang"
  },
  "schemaVersion": "3.4.6",
  "updatedAt": "2022-05-17T14:11:58.203Z",
  "networkType": "ethereum",
  "devdoc": {
    "kind": "dev",
    "methods": {
      "balanceOf(address)": {
        "details": "See {IERC721-balanceOf}."
      },
      "getApproved(uint256)": {
        "details": "See {IERC721-getApproved}."
      },
      "isApprovedForAll(address,address)": {
        "details": "See {IERC721-isApprovedForAll}."
      },
      "name()": {
        "details": "See {IERC721Metadata-name}."
      },
      "owner()": {
        "details": "Returns the address of the current owner."
      },
      "ownerOf(uint256)": {
        "details": "See {IERC721-ownerOf}."
      },
      "renounceOwnership()": {
        "details": "Leaves the contract without owner. It will not be possible to call `onlyOwner` functions anymore. Can only be called by the current owner. NOTE: Renouncing ownership will leave the contract without an owner, thereby removing any functionality that is only available to the owner."
      },
      "safeTransferFrom(address,address,uint256)": {
        "details": "See {IERC721-safeTransferFrom}."
      },
      "safeTransferFrom(address,address,uint256,bytes)": {
        "details": "See {IERC721-safeTransferFrom}."
      },
      "setApprovalForAll(address,bool)": {
        "details": "See {IERC721-setApprovalForAll}."
      },
      "supportsInterface(bytes4)": {
        "details": "See {IERC165-supportsInterface}."
      },
      "symbol()": {
        "details": "See {IERC721Metadata-symbol}."
      },
      "tokenURI(uint256)": {
        "details": "See {IERC721Metadata-tokenURI}."
      },
      "transferFrom(address,address,uint256)": {
        "details": "See {IERC721-transferFrom}."
      },
      "transferOwnership(address)": {
        "details": "Transfers ownership of the contract to a new account (`newOwner`). Can only be called by the current owner."
      }
    },
    "version": 1
  },
  "userdoc": {
    "kind": "user",
    "methods": {},
    "version": 1
  }
}