{
  "contractName": "Barricard",
  "abi": [
    {
      "inputs": [],
      "stateMutability": "nonpayable",
      "type": "constructor"
    },
    {
      "anonymous": false,
      "inputs": [
        {
          "indexed": true,
          "internalType": "address",
          "name": "owner",
          "type": "address"
        },
        {
          "indexed": true,
          "internalType": "address",
          "name": "approved",
          "type": "address"
        },
        {
          "indexed": true,
          "internalType": "uint256",
          "name": "tokenId",
          "type": "uint256"
        }
      ],
      "name": "Approval",
      "type": "event"
    },
    {
      "anonymous": false,
      "inputs": [
        {
          "indexed": true,
          "internalType": "address",
          "name": "owner",
          "type": "address"
        },
        {
          "indexed": true,
          "internalType": "address",
          "name": "operator",
          "type": "address"
        },
        {
          "indexed": false,
          "internalType": "bool",
          "name": "approved",
          "type": "bool"
        }
      ],
      "name": "ApprovalForAll",
      "type": "event"
    },
    {
      "anonymous": false,
      "inputs": [
        {
          "indexed": true,
          "internalType": "address",
          "name": "previousOwner",
          "type": "address"
        },
        {
          "indexed": true,
          "internalType": "address",
          "name": "newOwner",
          "type": "address"
        }
      ],
      "name": "OwnershipTransferred",
      "type": "event"
    },
    {
      "anonymous": false,
      "inputs": [
        {
          "indexed": true,
          "internalType": "address",
          "name": "from",
          "type": "address"
        },
        {
          "indexed": true,
          "internalType": "address",
          "name": "to",
          "type": "address"
        },
        {
          "indexed": true,
          "internalType": "uint256",
          "name": "tokenId",
          "type": "uint256"
        }
      ],
      "name": "Transfer",
      "type": "event"
    },
    {
      "inputs": [
        {
          "internalType": "address",
          "name": "",
          "type": "address"
        },
        {
          "internalType": "address",
          "name": "",
          "type": "address"
        }
      ],
      "name": "BattleApprovals",
      "outputs": [
        {
          "internalType": "bool",
          "name": "",
          "type": "bool"
        }
      ],
      "stateMutability": "view",
      "type": "function",
      "constant": true
    },
    {
      "inputs": [
        {
          "internalType": "address",
          "name": "",
          "type": "address"
        }
      ],
      "name": "OwnerToWin",
      "outputs": [
        {
          "internalType": "uint8",
          "name": "",
          "type": "uint8"
        }
      ],
      "stateMutability": "view",
      "type": "function",
      "constant": true
    },
    {
      "inputs": [
        {
          "internalType": "address",
          "name": "to",
          "type": "address"
        },
        {
          "internalType": "uint256",
          "name": "tokenId",
          "type": "uint256"
        }
      ],
      "name": "approve",
      "outputs": [],
      "stateMutability": "nonpayable",
      "type": "function"
    },
    {
      "inputs": [
        {
          "internalType": "address",
          "name": "owner",
          "type": "address"
        }
      ],
      "name": "balanceOf",
      "outputs": [
        {
          "internalType": "uint256",
          "name": "",
          "type": "uint256"
        }
      ],
      "stateMutability": "view",
      "type": "function",
      "constant": true
    },
    {
      "inputs": [
        {
          "internalType": "uint256",
          "name": "",
          "type": "uint256"
        }
      ],
      "name": "cards",
      "outputs": [
        {
          "internalType": "uint256",
          "name": "id",
          "type": "uint256"
        },
        {
          "internalType": "uint8",
          "name": "puissance",
          "type": "uint8"
        },
        {
          "internalType": "bool",
          "name": "isInDeck",
          "type": "bool"
        }
      ],
      "stateMutability": "view",
      "type": "function",
      "constant": true
    },
    {
      "inputs": [
        {
          "internalType": "uint256",
          "name": "tokenId",
          "type": "uint256"
        }
      ],
      "name": "getApproved",
      "outputs": [
        {
          "internalType": "address",
          "name": "",
          "type": "address"
        }
      ],
      "stateMutability": "view",
      "type": "function",
      "constant": true
    },
    {
      "inputs": [
        {
          "internalType": "address",
          "name": "owner",
          "type": "address"
        },
        {
          "internalType": "address",
          "name": "operator",
          "type": "address"
        }
      ],
      "name": "isApprovedForAll",
      "outputs": [
        {
          "internalType": "bool",
          "name": "",
          "type": "bool"
        }
      ],
      "stateMutability": "view",
      "type": "function",
      "constant": true
    },
    {
      "inputs": [],
      "name": "name",
      "outputs": [
        {
          "internalType": "string",
          "name": "",
          "type": "string"
        }
      ],
      "stateMutability": "view",
      "type": "function",
      "constant": true
    },
    {
      "inputs": [],
      "name": "owner",
      "outputs": [
        {
          "internalType": "address",
          "name": "",
          "type": "address"
        }
      ],
      "stateMutability": "view",
      "type": "function",
      "constant": true
    },
    {
      "inputs": [
        {
          "internalType": "uint256",
          "name": "tokenId",
          "type": "uint256"
        }
      ],
      "name": "ownerOf",
      "outputs": [
        {
          "internalType": "address",
          "name": "",
          "type": "address"
        }
      ],
      "stateMutability": "view",
      "type": "function",
      "constant": true
    },
    {
      "inputs": [],
      "name": "renounceOwnership",
      "outputs": [],
      "stateMutability": "nonpayable",
      "type": "function"
    },
    {
      "inputs": [
        {
          "internalType": "address",
          "name": "from",
          "type": "address"
        },
        {
          "internalType": "address",
          "name": "to",
          "type": "address"
        },
        {
          "internalType": "uint256",
          "name": "tokenId",
          "type": "uint256"
        }
      ],
      "name": "safeTransferFrom",
      "outputs": [],
      "stateMutability": "nonpayable",
      "type": "function"
    },
    {
      "inputs": [
        {
          "internalType": "address",
          "name": "from",
          "type": "address"
        },
        {
          "internalType": "address",
          "name": "to",
          "type": "address"
        },
        {
          "internalType": "uint256",
          "name": "tokenId",
          "type": "uint256"
        },
        {
          "internalType": "bytes",
          "name": "_data",
          "type": "bytes"
        }
      ],
      "name": "safeTransferFrom",
      "outputs": [],
      "stateMutability": "nonpayable",
      "type": "function"
    },
    {
      "inputs": [
        {
          "internalType": "address",
          "name": "operator",
          "type": "address"
        },
        {
          "internalType": "bool",
          "name": "approved",
          "type": "bool"
        }
      ],
      "name": "setApprovalForAll",
      "outputs": [],
      "stateMutability": "nonpayable",
      "type": "function"
    },
    {
      "inputs": [
        {
          "internalType": "bytes4",
          "name": "interfaceId",
          "type": "bytes4"
        }
      ],
      "name": "supportsInterface",
      "outputs": [
        {
          "internalType": "bool",
          "name": "",
          "type": "bool"
        }
      ],
      "stateMutability": "view",
      "type": "function",
      "constant": true
    },
    {
      "inputs": [],
      "name": "symbol",
      "outputs": [
        {
          "internalType": "string",
          "name": "",
          "type": "string"
        }
      ],
      "stateMutability": "view",
      "type": "function",
      "constant": true
    },
    {
      "inputs": [
        {
          "internalType": "uint256",
          "name": "tokenId",
          "type": "uint256"
        }
      ],
      "name": "tokenURI",
      "outputs": [
        {
          "internalType": "string",
          "name": "",
          "type": "string"
        }
      ],
      "stateMutability": "view",
      "type": "function",
      "constant": true
    },
    {
      "inputs": [
        {
          "internalType": "address",
          "name": "newOwner",
          "type": "address"
        }
      ],
      "name": "transferOwnership",
      "outputs": [],
      "stateMutability": "nonpayable",
      "type": "function"
    },
    {
      "inputs": [
        {
          "internalType": "uint256",
          "name": "_cardId",
          "type": "uint256"
        }
      ],
      "name": "addCardInDeck",
      "outputs": [],
      "stateMutability": "nonpayable",
      "type": "function"
    },
    {
      "inputs": [
        {
          "internalType": "uint256",
          "name": "_cardId",
          "type": "uint256"
        }
      ],
      "name": "removeCardInDeck",
      "outputs": [],
      "stateMutability": "nonpayable",
      "type": "function"
    },
    {
      "inputs": [
        {
          "internalType": "uint256",
          "name": "_cardId",
          "type": "uint256"
        }
      ],
      "name": "getIsInDeck",
      "outputs": [
        {
          "internalType": "bool",
          "name": "",
          "type": "bool"
        }
      ],
      "stateMutability": "view",
      "type": "function",
      "constant": true
    },
    {
      "inputs": [
        {
          "internalType": "uint256[]",
          "name": "deck",
          "type": "uint256[]"
        }
      ],
      "name": "_cardShuffle",
      "outputs": [
        {
          "internalType": "uint256[]",
          "name": "",
          "type": "uint256[]"
        }
      ],
      "stateMutability": "view",
      "type": "function",
      "constant": true
    },
    {
      "inputs": [
        {
          "internalType": "address",
          "name": "adrj",
          "type": "address"
        }
      ],
      "name": "battleApproval",
      "outputs": [],
      "stateMutability": "nonpayable",
      "type": "function"
    },
    {
      "inputs": [
        {
          "internalType": "address",
          "name": "adrj",
          "type": "address"
        }
      ],
      "name": "battleDisapproval",
      "outputs": [],
      "stateMutability": "nonpayable",
      "type": "function"
    },
    {
      "inputs": [
        {
          "internalType": "address",
          "name": "adrj",
          "type": "address"
        }
      ],
      "name": "_cardBattle",
      "outputs": [],
      "stateMutability": "nonpayable",
      "type": "function"
    },
    {
      "inputs": [
        {
          "internalType": "address",
          "name": "_owner",
          "type": "address"
        }
      ],
      "name": "getCardsByOwner",
      "outputs": [
        {
          "internalType": "uint256[]",
          "name": "",
          "type": "uint256[]"
        }
      ],
      "stateMutability": "view",
      "type": "function",
      "constant": true
    },
    {
      "inputs": [
        {
          "internalType": "address",
          "name": "_owner",
          "type": "address"
        }
      ],
      "name": "getCardsInDeckByOwner",
      "outputs": [
        {
          "internalType": "uint256[]",
          "name": "",
          "type": "uint256[]"
        }
      ],
      "stateMutability": "view",
      "type": "function",
      "constant": true
    },
    {
      "inputs": [
        {
          "internalType": "uint8",
          "name": "puissance",
          "type": "uint8"
        }
      ],
      "name": "_createCard",
      "outputs": [],
      "stateMutability": "nonpayable",
      "type": "function"
    },
    {
      "inputs": [
        {
          "internalType": "address",
          "name": "from",
          "type": "address"
        },
        {
          "internalType": "address",
          "name": "to",
          "type": "address"
        },
        {
          "internalType": "uint256",
          "name": "tokenId",
          "type": "uint256"
        }
      ],
      "name": "transferFrom",
      "outputs": [],
      "stateMutability": "nonpayable",
      "type": "function"
    },
    {
      "inputs": [],
      "name": "createRandomCard",
      "outputs": [],
      "stateMutability": "nonpayable",
      "type": "function"
    },
    {
      "inputs": [],
      "name": "kill",
      "outputs": [],
      "stateMutability": "nonpayable",
      "type": "function"
    }
  ],
  "bytecode": "0x60806040526010600855600854600a6200001a9190620003fc565b6009553480156200002a57600080fd5b506040518060400160405280600481526020017f43617264000000000000000000000000000000000000000000000000000000008152506040518060400160405280600381526020017f42434400000000000000000000000000000000000000000000000000000000008152508160009080519060200190620000af929190620001bf565b508060019080519060200190620000c8929190620001bf565b505050620000eb620000df620000f160201b60201c565b620000f960201b60201c565b620004b1565b600033905090565b6000600660009054906101000a900473ffffffffffffffffffffffffffffffffffffffff16905081600660006101000a81548173ffffffffffffffffffffffffffffffffffffffff021916908373ffffffffffffffffffffffffffffffffffffffff1602179055508173ffffffffffffffffffffffffffffffffffffffff168173ffffffffffffffffffffffffffffffffffffffff167f8be0079c531659141344cd1fd0a4f28419497f9722a3daafe3b4186f6b6457e060405160405180910390a35050565b828054620001cd906200047c565b90600052602060002090601f016020900481019282620001f157600085556200023d565b82601f106200020c57805160ff19168380011785556200023d565b828001600101855582156200023d579182015b828111156200023c5782518255916020019190600101906200021f565b5b5090506200024c919062000250565b5090565b5b808211156200026b57600081600090555060010162000251565b5090565b7f4e487b7100000000000000000000000000000000000000000000000000000000600052601160045260246000fd5b60008160011c9050919050565b6000808291508390505b6001851115620002fd57808604811115620002d557620002d46200026f565b5b6001851615620002e55780820291505b8081029050620002f5856200029e565b9450620002b5565b94509492505050565b600082620003185760019050620003eb565b81620003285760009050620003eb565b81600181146200034157600281146200034c5762000382565b6001915050620003eb565b60ff8411156200036157620003606200026f565b5b8360020a9150848211156200037b576200037a6200026f565b5b50620003eb565b5060208310610133831016604e8410600b8410161715620003bc5782820a905083811115620003b657620003b56200026f565b5b620003eb565b620003cb8484846001620002ab565b92509050818404811115620003e557620003e46200026f565b5b81810290505b9392505050565b6000819050919050565b60006200040982620003f2565b91506200041683620003f2565b9250620004457fffffffffffffffffffffffffffffffffffffffffffffffffffffffffffffffff848462000306565b905092915050565b7f4e487b7100000000000000000000000000000000000000000000000000000000600052602260045260246000fd5b600060028204905060018216806200049557607f821691505b602082108103620004ab57620004aa6200044d565b5b50919050565b61430f80620004c16000396000f3fe608060405234801561001057600080fd5b50600436106101e55760003560e01c8063715018a61161010f578063c18786a9116100a2578063e985e9c511610071578063e985e9c51461059e578063eba73c7c146105ce578063f2fde38b146105fe578063fb3f77661461061a576101e5565b8063c18786a9146104f2578063c87b56dd14610522578063d5be574a14610552578063e1ea2d5214610582576101e5565b806395d89b41116100de57806395d89b411461046c5780639ee3b1ef1461048a578063a22cb465146104ba578063b88d4fde146104d6576101e5565b8063715018a6146103f6578063771ab73c146104005780638da5cb5b1461041c5780638dc107681461043a576101e5565b8063192048c91161018757806342842e0e1161015657806342842e0e1461034a5780636352211e1461036657806366d6652f1461039657806370a08231146103c6576101e5565b8063192048c9146102d857806323b872dd14610308578063277de1ad1461032457806341c0e1b514610340576101e5565b8063081812fc116101c3578063081812fc14610254578063095ea7b31461028457806317711699146102a057806318b3b6e0146102bc576101e5565b806301ffc9a7146101ea5780630666f0261461021a57806306fdde0314610236575b600080fd5b61020460048036038101906101ff9190612dd2565b610624565b6040516102119190612e1a565b60405180910390f35b610234600480360381019061022f9190612e6e565b610706565b005b61023e610923565b60405161024b9190612f34565b60405180910390f35b61026e60048036038101906102699190612f8c565b6109b5565b60405161027b9190612ffa565b60405180910390f35b61029e60048036038101906102999190613041565b610a3a565b005b6102ba60048036038101906102b59190612f8c565b610b51565b005b6102d660048036038101906102d19190613081565b610c3f565b005b6102f260048036038101906102ed9190613081565b610d71565b6040516102ff91906130bd565b60405180910390f35b610322600480360381019061031d91906130d8565b610d91565b005b61033e60048036038101906103399190613081565b610dfb565b005b610348611298565b005b610364600480360381019061035f91906130d8565b611334565b005b610380600480360381019061037b9190612f8c565b611354565b60405161038d9190612ffa565b60405180910390f35b6103b060048036038101906103ab919061312b565b611405565b6040516103bd9190612e1a565b60405180910390f35b6103e060048036038101906103db9190613081565b611434565b6040516103ed919061317a565b60405180910390f35b6103fe6114eb565b005b61041a60048036038101906104159190612f8c565b611573565b005b610424611661565b6040516104319190612ffa565b60405180910390f35b610454600480360381019061044f9190612f8c565b61168b565b60405161046393929190613195565b60405180910390f35b6104746116df565b6040516104819190612f34565b60405180910390f35b6104a4600480360381019061049f9190613081565b611771565b6040516104b1919061328a565b60405180910390f35b6104d460048036038101906104cf91906132d8565b6118eb565b005b6104f060048036038101906104eb919061344d565b611901565b005b61050c60048036038101906105079190613598565b611963565b604051610519919061328a565b60405180910390f35b61053c60048036038101906105379190612f8c565b611a58565b6040516105499190612f34565b60405180910390f35b61056c60048036038101906105679190612f8c565b611aff565b6040516105799190612e1a565b60405180910390f35b61059c60048036038101906105979190613081565b611b7d565b005b6105b860048036038101906105b3919061312b565b611caf565b6040516105c59190612e1a565b60405180910390f35b6105e860048036038101906105e39190613081565b611d43565b6040516105f5919061328a565b60405180910390f35b61061860048036038101906106139190613081565b611e33565b005b610622611f2a565b005b60007f80ac58cd000000000000000000000000000000000000000000000000000000007bffffffffffffffffffffffffffffffffffffffffffffffffffffffff1916827bffffffffffffffffffffffffffffffffffffffffffffffffffffffff191614806106ef57507f5b5e139f000000000000000000000000000000000000000000000000000000007bffffffffffffffffffffffffffffffffffffffffffffffffffffffff1916827bffffffffffffffffffffffffffffffffffffffffffffffffffffffff1916145b806106ff57506106fe82611f71565b5b9050919050565b6000600780549050905061071a3382611fdb565b600a600b60003373ffffffffffffffffffffffffffffffffffffffff1673ffffffffffffffffffffffffffffffffffffffff16815260200190815260200160002060009054906101000a900460ff1660ff16101561088557600760405180606001604052808381526020018460ff1681526020016001151581525090806001815401808255809150506001900390600052602060002090600202016000909190919091506000820151816000015560208201518160010160006101000a81548160ff021916908360ff16021790555060408201518160010160016101000a81548160ff0219169083151502179055505050600b60003373ffffffffffffffffffffffffffffffffffffffff1673ffffffffffffffffffffffffffffffffffffffff168152602001908152602001600020600081819054906101000a900460ff168092919061086790613610565b91906101000a81548160ff021916908360ff1602179055505061091f565b600760405180606001604052808381526020018460ff1681526020016000151581525090806001815401808255809150506001900390600052602060002090600202016000909190919091506000820151816000015560208201518160010160006101000a81548160ff021916908360ff16021790555060408201518160010160016101000a81548160ff02191690831515021790555050505b5050565b60606000805461093290613668565b80601f016020809104026020016040519081016040528092919081815260200182805461095e90613668565b80156109ab5780601f10610980576101008083540402835291602001916109ab565b820191906000526020600020905b81548152906001019060200180831161098e57829003601f168201915b5050505050905090565b60006109c0826121b4565b6109ff576040517f08c379a00000000000000000000000000000000000000000000000000000000081526004016109f69061370b565b60405180910390fd5b6004600083815260200190815260200160002060009054906101000a900473ffffffffffffffffffffffffffffffffffffffff169050919050565b6000610a4582611354565b90508073ffffffffffffffffffffffffffffffffffffffff168373ffffffffffffffffffffffffffffffffffffffff1603610ab5576040517f08c379a0000000000000000000000000000000000000000000000000000000008152600401610aac9061379d565b60405180910390fd5b8073ffffffffffffffffffffffffffffffffffffffff16610ad4612220565b73ffffffffffffffffffffffffffffffffffffffff161480610b035750610b0281610afd612220565b611caf565b5b610b42576040517f08c379a0000000000000000000000000000000000000000000000000000000008152600401610b399061382f565b60405180910390fd5b610b4c8383612228565b505050565b80610b5b81611354565b73ffffffffffffffffffffffffffffffffffffffff163373ffffffffffffffffffffffffffffffffffffffff1614610b9257600080fd5b600a600b60003373ffffffffffffffffffffffffffffffffffffffff1673ffffffffffffffffffffffffffffffffffffffff16815260200190815260200160002060009054906101000a900460ff1660ff1610610bee57600080fd5b6000151560078381548110610c0657610c0561384f565b5b906000526020600020906002020160010160019054906101000a900460ff16151514610c3157600080fd5b610c3b82336122e1565b5050565b60001515600d60003373ffffffffffffffffffffffffffffffffffffffff1673ffffffffffffffffffffffffffffffffffffffff16815260200190815260200160002060008373ffffffffffffffffffffffffffffffffffffffff1673ffffffffffffffffffffffffffffffffffffffff16815260200190815260200160002060009054906101000a900460ff16151514610cd957600080fd5b6001600d60003373ffffffffffffffffffffffffffffffffffffffff1673ffffffffffffffffffffffffffffffffffffffff16815260200190815260200160002060008373ffffffffffffffffffffffffffffffffffffffff1673ffffffffffffffffffffffffffffffffffffffff16815260200190815260200160002060006101000a81548160ff02191690831515021790555050565b600a6020528060005260406000206000915054906101000a900460ff1681565b610da2610d9c612220565b82612398565b610de1576040517f08c379a0000000000000000000000000000000000000000000000000000000008152600401610dd8906138f0565b60405180910390fd5b610deb8184612476565b610df683838361252d565b505050565b60011515600d60008373ffffffffffffffffffffffffffffffffffffffff1673ffffffffffffffffffffffffffffffffffffffff16815260200190815260200160002060003373ffffffffffffffffffffffffffffffffffffffff1673ffffffffffffffffffffffffffffffffffffffff16815260200190815260200160002060009054906101000a900460ff16151514610e9557600080fd5b6000600d60008373ffffffffffffffffffffffffffffffffffffffff1673ffffffffffffffffffffffffffffffffffffffff16815260200190815260200160002060003373ffffffffffffffffffffffffffffffffffffffff1673ffffffffffffffffffffffffffffffffffffffff16815260200190815260200160002060006101000a81548160ff0219169083151502179055506000600d60003373ffffffffffffffffffffffffffffffffffffffff1673ffffffffffffffffffffffffffffffffffffffff16815260200190815260200160002060008373ffffffffffffffffffffffffffffffffffffffff1673ffffffffffffffffffffffffffffffffffffffff16815260200190815260200160002060006101000a81548160ff0219169083151502179055506000610fca33611771565b9050610fd581611963565b90506000610fe283611771565b9050610fed81611963565b90506000805b610fff84518451612793565b81101561118857600783828151811061101b5761101a61384f565b5b6020026020010151815481106110345761103361384f565b5b906000526020600020906002020160010160009054906101000a900460ff1660ff16600785838151811061106b5761106a61384f565b5b6020026020010151815481106110845761108361384f565b5b906000526020600020906002020160010160009054906101000a900460ff1660ff1611156110bf5781806110b79061391d565b925050611175565b60078382815181106110d4576110d361384f565b5b6020026020010151815481106110ed576110ec61384f565b5b906000526020600020906002020160010160009054906101000a900460ff1660ff1660078583815181106111245761112361384f565b5b60200260200101518154811061113d5761113c61384f565b5b906000526020600020906002020160010160009054906101000a900460ff1660ff16101561117457818061117090613946565b9250505b5b80806111809061398e565b915050610ff3565b5060008160000b131561120f57600a60003373ffffffffffffffffffffffffffffffffffffffff1673ffffffffffffffffffffffffffffffffffffffff168152602001908152602001600020600081819054906101000a900460ff16809291906111f190613610565b91906101000a81548160ff021916908360ff16021790555050611292565b60008160000b121561129157600a60008573ffffffffffffffffffffffffffffffffffffffff1673ffffffffffffffffffffffffffffffffffffffff168152602001908152602001600020600081819054906101000a900460ff168092919061127790613610565b91906101000a81548160ff021916908360ff160217905550505b5b50505050565b6112a0612220565b73ffffffffffffffffffffffffffffffffffffffff166112be611661565b73ffffffffffffffffffffffffffffffffffffffff1614611314576040517f08c379a000000000000000000000000000000000000000000000000000000000815260040161130b90613a22565b60405180910390fd5b61131c611661565b73ffffffffffffffffffffffffffffffffffffffff16ff5b61134f83838360405180602001604052806000815250611901565b505050565b6000806002600084815260200190815260200160002060009054906101000a900473ffffffffffffffffffffffffffffffffffffffff169050600073ffffffffffffffffffffffffffffffffffffffff168173ffffffffffffffffffffffffffffffffffffffff16036113fc576040517f08c379a00000000000000000000000000000000000000000000000000000000081526004016113f390613ab4565b60405180910390fd5b80915050919050565b600d6020528160005260406000206020528060005260406000206000915091509054906101000a900460ff1681565b60008073ffffffffffffffffffffffffffffffffffffffff168273ffffffffffffffffffffffffffffffffffffffff16036114a4576040517f08c379a000000000000000000000000000000000000000000000000000000000815260040161149b90613b46565b60405180910390fd5b600360008373ffffffffffffffffffffffffffffffffffffffff1673ffffffffffffffffffffffffffffffffffffffff168152602001908152602001600020549050919050565b6114f3612220565b73ffffffffffffffffffffffffffffffffffffffff16611511611661565b73ffffffffffffffffffffffffffffffffffffffff1614611567576040517f08c379a000000000000000000000000000000000000000000000000000000000815260040161155e90613a22565b60405180910390fd5b61157160006127ad565b565b8061157d81611354565b73ffffffffffffffffffffffffffffffffffffffff163373ffffffffffffffffffffffffffffffffffffffff16146115b457600080fd5b6000600b60003373ffffffffffffffffffffffffffffffffffffffff1673ffffffffffffffffffffffffffffffffffffffff16815260200190815260200160002060009054906101000a900460ff1660ff161161161057600080fd5b60011515600783815481106116285761162761384f565b5b906000526020600020906002020160010160019054906101000a900460ff1615151461165357600080fd5b61165d8233612476565b5050565b6000600660009054906101000a900473ffffffffffffffffffffffffffffffffffffffff16905090565b6007818154811061169b57600080fd5b90600052602060002090600202016000915090508060000154908060010160009054906101000a900460ff16908060010160019054906101000a900460ff16905083565b6060600180546116ee90613668565b80601f016020809104026020016040519081016040528092919081815260200182805461171a90613668565b80156117675780601f1061173c57610100808354040283529160200191611767565b820191906000526020600020905b81548152906001019060200180831161174a57829003601f168201915b5050505050905090565b60606000600b60008473ffffffffffffffffffffffffffffffffffffffff1673ffffffffffffffffffffffffffffffffffffffff16815260200190815260200160002060009054906101000a900460ff1660ff1667ffffffffffffffff8111156117de576117dd613322565b5b60405190808252806020026020018201604052801561180c5781602001602082028036833780820191505090505b5090506000805b6007805490508110156118e0578473ffffffffffffffffffffffffffffffffffffffff1661184082611354565b73ffffffffffffffffffffffffffffffffffffffff16148015611899575060011515600782815481106118765761187561384f565b5b906000526020600020906002020160010160019054906101000a900460ff161515145b156118cd57808383815181106118b2576118b161384f565b5b60200260200101818152505081806118c99061398e565b9250505b80806118d89061398e565b915050611813565b508192505050919050565b6118fd6118f6612220565b8383612873565b5050565b61191261190c612220565b83612398565b611951576040517f08c379a0000000000000000000000000000000000000000000000000000000008152600401611948906138f0565b60405180910390fd5b61195d848484846129df565b50505050565b606060005b8251811015611a4f5760008184516119809190613b66565b426040516020016119919190613bbb565b6040516020818303038152906040528051906020012060001c6119b49190613c05565b826119bf9190613c36565b905060008482815181106119d6576119d561384f565b5b602002602001015190508483815181106119f3576119f261384f565b5b6020026020010151858381518110611a0e57611a0d61384f565b5b60200260200101818152505080858481518110611a2e57611a2d61384f565b5b60200260200101818152505050508080611a479061398e565b915050611968565b50819050919050565b6060611a63826121b4565b611aa2576040517f08c379a0000000000000000000000000000000000000000000000000000000008152600401611a9990613cfe565b60405180910390fd5b6000611aac612a3b565b90506000815111611acc5760405180602001604052806000815250611af7565b80611ad684612a52565b604051602001611ae7929190613d5a565b6040516020818303038152906040525b915050919050565b600081611b0b81611354565b73ffffffffffffffffffffffffffffffffffffffff163373ffffffffffffffffffffffffffffffffffffffff1614611b4257600080fd5b60078381548110611b5657611b5561384f565b5b906000526020600020906002020160010160019054906101000a900460ff16915050919050565b60011515600d60003373ffffffffffffffffffffffffffffffffffffffff1673ffffffffffffffffffffffffffffffffffffffff16815260200190815260200160002060008373ffffffffffffffffffffffffffffffffffffffff1673ffffffffffffffffffffffffffffffffffffffff16815260200190815260200160002060009054906101000a900460ff16151514611c1757600080fd5b6000600d60003373ffffffffffffffffffffffffffffffffffffffff1673ffffffffffffffffffffffffffffffffffffffff16815260200190815260200160002060008373ffffffffffffffffffffffffffffffffffffffff1673ffffffffffffffffffffffffffffffffffffffff16815260200190815260200160002060006101000a81548160ff02191690831515021790555050565b6000600560008473ffffffffffffffffffffffffffffffffffffffff1673ffffffffffffffffffffffffffffffffffffffff16815260200190815260200160002060008373ffffffffffffffffffffffffffffffffffffffff1673ffffffffffffffffffffffffffffffffffffffff16815260200190815260200160002060009054906101000a900460ff16905092915050565b60606000611d5083611434565b67ffffffffffffffff811115611d6957611d68613322565b5b604051908082528060200260200182016040528015611d975781602001602082028036833780820191505090505b5090506000805b600780549050811015611e28578473ffffffffffffffffffffffffffffffffffffffff16611dcb82611354565b73ffffffffffffffffffffffffffffffffffffffff1603611e155780838381518110611dfa57611df961384f565b5b6020026020010181815250508180611e119061398e565b9250505b8080611e209061398e565b915050611d9e565b508192505050919050565b611e3b612220565b73ffffffffffffffffffffffffffffffffffffffff16611e59611661565b73ffffffffffffffffffffffffffffffffffffffff1614611eaf576040517f08c379a0000000000000000000000000000000000000000000000000000000008152600401611ea690613a22565b60405180910390fd5b600073ffffffffffffffffffffffffffffffffffffffff168173ffffffffffffffffffffffffffffffffffffffff1603611f1e576040517f08c379a0000000000000000000000000000000000000000000000000000000008152600401611f1590613df0565b60405180910390fd5b611f27816127ad565b50565b600061010042604051602001611f409190613bbb565b6040516020818303038152906040528051906020012060001c611f639190613c05565b9050611f6e81610706565b50565b60007f01ffc9a7000000000000000000000000000000000000000000000000000000007bffffffffffffffffffffffffffffffffffffffffffffffffffffffff1916827bffffffffffffffffffffffffffffffffffffffffffffffffffffffff1916149050919050565b600073ffffffffffffffffffffffffffffffffffffffff168273ffffffffffffffffffffffffffffffffffffffff160361204a576040517f08c379a000000000000000000000000000000000000000000000000000000000815260040161204190613e5c565b60405180910390fd5b612053816121b4565b15612093576040517f08c379a000000000000000000000000000000000000000000000000000000000815260040161208a90613ec8565b60405180910390fd5b61209f60008383612bb2565b6001600360008473ffffffffffffffffffffffffffffffffffffffff1673ffffffffffffffffffffffffffffffffffffffff16815260200190815260200160002060008282546120ef9190613c36565b92505081905550816002600083815260200190815260200160002060006101000a81548173ffffffffffffffffffffffffffffffffffffffff021916908373ffffffffffffffffffffffffffffffffffffffff160217905550808273ffffffffffffffffffffffffffffffffffffffff16600073ffffffffffffffffffffffffffffffffffffffff167fddf252ad1be2c89b69c2b068fc378daa952ba7f163c4a11628f55a4df523b3ef60405160405180910390a46121b060008383612bb7565b5050565b60008073ffffffffffffffffffffffffffffffffffffffff166002600084815260200190815260200160002060009054906101000a900473ffffffffffffffffffffffffffffffffffffffff1673ffffffffffffffffffffffffffffffffffffffff1614159050919050565b600033905090565b816004600083815260200190815260200160002060006101000a81548173ffffffffffffffffffffffffffffffffffffffff021916908373ffffffffffffffffffffffffffffffffffffffff160217905550808273ffffffffffffffffffffffffffffffffffffffff1661229b83611354565b73ffffffffffffffffffffffffffffffffffffffff167f8c5be1e5ebec7d5bd14f71427d1e84f3dd0314c0f7b2291e5b200ac8c7c3b92560405160405180910390a45050565b6001600783815481106122f7576122f661384f565b5b906000526020600020906002020160010160016101000a81548160ff021916908315150217905550600b60008273ffffffffffffffffffffffffffffffffffffffff1673ffffffffffffffffffffffffffffffffffffffff168152602001908152602001600020600081819054906101000a900460ff168092919061237b90613610565b91906101000a81548160ff021916908360ff160217905550505050565b60006123a3826121b4565b6123e2576040517f08c379a00000000000000000000000000000000000000000000000000000000081526004016123d990613f5a565b60405180910390fd5b60006123ed83611354565b90508073ffffffffffffffffffffffffffffffffffffffff168473ffffffffffffffffffffffffffffffffffffffff16148061245c57508373ffffffffffffffffffffffffffffffffffffffff16612444846109b5565b73ffffffffffffffffffffffffffffffffffffffff16145b8061246d575061246c8185611caf565b5b91505092915050565b60006007838154811061248c5761248b61384f565b5b906000526020600020906002020160010160016101000a81548160ff021916908315150217905550600b60008273ffffffffffffffffffffffffffffffffffffffff1673ffffffffffffffffffffffffffffffffffffffff168152602001908152602001600020600081819054906101000a900460ff168092919061251090613f7a565b91906101000a81548160ff021916908360ff160217905550505050565b8273ffffffffffffffffffffffffffffffffffffffff1661254d82611354565b73ffffffffffffffffffffffffffffffffffffffff16146125a3576040517f08c379a000000000000000000000000000000000000000000000000000000000815260040161259a90614015565b60405180910390fd5b600073ffffffffffffffffffffffffffffffffffffffff168273ffffffffffffffffffffffffffffffffffffffff1603612612576040517f08c379a0000000000000000000000000000000000000000000000000000000008152600401612609906140a7565b60405180910390fd5b61261d838383612bb2565b612628600082612228565b6001600360008573ffffffffffffffffffffffffffffffffffffffff1673ffffffffffffffffffffffffffffffffffffffff16815260200190815260200160002060008282546126789190613b66565b925050819055506001600360008473ffffffffffffffffffffffffffffffffffffffff1673ffffffffffffffffffffffffffffffffffffffff16815260200190815260200160002060008282546126cf9190613c36565b92505081905550816002600083815260200190815260200160002060006101000a81548173ffffffffffffffffffffffffffffffffffffffff021916908373ffffffffffffffffffffffffffffffffffffffff160217905550808273ffffffffffffffffffffffffffffffffffffffff168473ffffffffffffffffffffffffffffffffffffffff167fddf252ad1be2c89b69c2b068fc378daa952ba7f163c4a11628f55a4df523b3ef60405160405180910390a461278e838383612bb7565b505050565b6000818311156127a357816127a5565b825b905092915050565b6000600660009054906101000a900473ffffffffffffffffffffffffffffffffffffffff16905081600660006101000a81548173ffffffffffffffffffffffffffffffffffffffff021916908373ffffffffffffffffffffffffffffffffffffffff1602179055508173ffffffffffffffffffffffffffffffffffffffff168173ffffffffffffffffffffffffffffffffffffffff167f8be0079c531659141344cd1fd0a4f28419497f9722a3daafe3b4186f6b6457e060405160405180910390a35050565b8173ffffffffffffffffffffffffffffffffffffffff168373ffffffffffffffffffffffffffffffffffffffff16036128e1576040517f08c379a00000000000000000000000000000000000000000000000000000000081526004016128d890614113565b60405180910390fd5b80600560008573ffffffffffffffffffffffffffffffffffffffff1673ffffffffffffffffffffffffffffffffffffffff16815260200190815260200160002060008473ffffffffffffffffffffffffffffffffffffffff1673ffffffffffffffffffffffffffffffffffffffff16815260200190815260200160002060006101000a81548160ff0219169083151502179055508173ffffffffffffffffffffffffffffffffffffffff168373ffffffffffffffffffffffffffffffffffffffff167f17307eab39ab6107e8899845ad3d59bd9653f200f220920489ca2b5937696c31836040516129d29190612e1a565b60405180910390a3505050565b6129ea84848461252d565b6129f684848484612bbc565b612a35576040517f08c379a0000000000000000000000000000000000000000000000000000000008152600401612a2c906141a5565b60405180910390fd5b50505050565b606060405180602001604052806000815250905090565b606060008203612a99576040518060400160405280600181526020017f30000000000000000000000000000000000000000000000000000000000000008152509050612bad565b600082905060005b60008214612acb578080612ab49061398e565b915050600a82612ac491906141c5565b9150612aa1565b60008167ffffffffffffffff811115612ae757612ae6613322565b5b6040519080825280601f01601f191660200182016040528015612b195781602001600182028036833780820191505090505b5090505b60008514612ba657600182612b329190613b66565b9150600a85612b419190613c05565b6030612b4d9190613c36565b60f81b818381518110612b6357612b6261384f565b5b60200101907effffffffffffffffffffffffffffffffffffffffffffffffffffffffffffff1916908160001a905350600a85612b9f91906141c5565b9450612b1d565b8093505050505b919050565b505050565b505050565b6000612bdd8473ffffffffffffffffffffffffffffffffffffffff16612d43565b15612d36578373ffffffffffffffffffffffffffffffffffffffff1663150b7a02612c06612220565b8786866040518563ffffffff1660e01b8152600401612c28949392919061424b565b6020604051808303816000875af1925050508015612c6457506040513d601f19601f82011682018060405250810190612c6191906142ac565b60015b612ce6573d8060008114612c94576040519150601f19603f3d011682016040523d82523d6000602084013e612c99565b606091505b506000815103612cde576040517f08c379a0000000000000000000000000000000000000000000000000000000008152600401612cd5906141a5565b60405180910390fd5b805181602001fd5b63150b7a0260e01b7bffffffffffffffffffffffffffffffffffffffffffffffffffffffff1916817bffffffffffffffffffffffffffffffffffffffffffffffffffffffff191614915050612d3b565b600190505b949350505050565b6000808273ffffffffffffffffffffffffffffffffffffffff163b119050919050565b6000604051905090565b600080fd5b600080fd5b60007fffffffff0000000000000000000000000000000000000000000000000000000082169050919050565b612daf81612d7a565b8114612dba57600080fd5b50565b600081359050612dcc81612da6565b92915050565b600060208284031215612de857612de7612d70565b5b6000612df684828501612dbd565b91505092915050565b60008115159050919050565b612e1481612dff565b82525050565b6000602082019050612e2f6000830184612e0b565b92915050565b600060ff82169050919050565b612e4b81612e35565b8114612e5657600080fd5b50565b600081359050612e6881612e42565b92915050565b600060208284031215612e8457612e83612d70565b5b6000612e9284828501612e59565b91505092915050565b600081519050919050565b600082825260208201905092915050565b60005b83811015612ed5578082015181840152602081019050612eba565b83811115612ee4576000848401525b50505050565b6000601f19601f8301169050919050565b6000612f0682612e9b565b612f108185612ea6565b9350612f20818560208601612eb7565b612f2981612eea565b840191505092915050565b60006020820190508181036000830152612f4e8184612efb565b905092915050565b6000819050919050565b612f6981612f56565b8114612f7457600080fd5b50565b600081359050612f8681612f60565b92915050565b600060208284031215612fa257612fa1612d70565b5b6000612fb084828501612f77565b91505092915050565b600073ffffffffffffffffffffffffffffffffffffffff82169050919050565b6000612fe482612fb9565b9050919050565b612ff481612fd9565b82525050565b600060208201905061300f6000830184612feb565b92915050565b61301e81612fd9565b811461302957600080fd5b50565b60008135905061303b81613015565b92915050565b6000806040838503121561305857613057612d70565b5b60006130668582860161302c565b925050602061307785828601612f77565b9150509250929050565b60006020828403121561309757613096612d70565b5b60006130a58482850161302c565b91505092915050565b6130b781612e35565b82525050565b60006020820190506130d260008301846130ae565b92915050565b6000806000606084860312156130f1576130f0612d70565b5b60006130ff8682870161302c565b93505060206131108682870161302c565b925050604061312186828701612f77565b9150509250925092565b6000806040838503121561314257613141612d70565b5b60006131508582860161302c565b92505060206131618582860161302c565b9150509250929050565b61317481612f56565b82525050565b600060208201905061318f600083018461316b565b92915050565b60006060820190506131aa600083018661316b565b6131b760208301856130ae565b6131c46040830184612e0b565b949350505050565b600081519050919050565b600082825260208201905092915050565b6000819050602082019050919050565b61320181612f56565b82525050565b600061321383836131f8565b60208301905092915050565b6000602082019050919050565b6000613237826131cc565b61324181856131d7565b935061324c836131e8565b8060005b8381101561327d5781516132648882613207565b975061326f8361321f565b925050600181019050613250565b5085935050505092915050565b600060208201905081810360008301526132a4818461322c565b905092915050565b6132b581612dff565b81146132c057600080fd5b50565b6000813590506132d2816132ac565b92915050565b600080604083850312156132ef576132ee612d70565b5b60006132fd8582860161302c565b925050602061330e858286016132c3565b9150509250929050565b600080fd5b600080fd5b7f4e487b7100000000000000000000000000000000000000000000000000000000600052604160045260246000fd5b61335a82612eea565b810181811067ffffffffffffffff8211171561337957613378613322565b5b80604052505050565b600061338c612d66565b90506133988282613351565b919050565b600067ffffffffffffffff8211156133b8576133b7613322565b5b6133c182612eea565b9050602081019050919050565b82818337600083830152505050565b60006133f06133eb8461339d565b613382565b90508281526020810184848401111561340c5761340b61331d565b5b6134178482856133ce565b509392505050565b600082601f83011261343457613433613318565b5b81356134448482602086016133dd565b91505092915050565b6000806000806080858703121561346757613466612d70565b5b60006134758782880161302c565b94505060206134868782880161302c565b935050604061349787828801612f77565b925050606085013567ffffffffffffffff8111156134b8576134b7612d75565b5b6134c48782880161341f565b91505092959194509250565b600067ffffffffffffffff8211156134eb576134ea613322565b5b602082029050602081019050919050565b600080fd5b600061351461350f846134d0565b613382565b90508083825260208201905060208402830185811115613537576135366134fc565b5b835b81811015613560578061354c8882612f77565b845260208401935050602081019050613539565b5050509392505050565b600082601f83011261357f5761357e613318565b5b813561358f848260208601613501565b91505092915050565b6000602082840312156135ae576135ad612d70565b5b600082013567ffffffffffffffff8111156135cc576135cb612d75565b5b6135d88482850161356a565b91505092915050565b7f4e487b7100000000000000000000000000000000000000000000000000000000600052601160045260246000fd5b600061361b82612e35565b915060ff820361362e5761362d6135e1565b5b600182019050919050565b7f4e487b7100000000000000000000000000000000000000000000000000000000600052602260045260246000fd5b6000600282049050600182168061368057607f821691505b60208210810361369357613692613639565b5b50919050565b7f4552433732313a20617070726f76656420717565727920666f72206e6f6e657860008201527f697374656e7420746f6b656e0000000000000000000000000000000000000000602082015250565b60006136f5602c83612ea6565b915061370082613699565b604082019050919050565b60006020820190508181036000830152613724816136e8565b9050919050565b7f4552433732313a20617070726f76616c20746f2063757272656e74206f776e6560008201527f7200000000000000000000000000000000000000000000000000000000000000602082015250565b6000613787602183612ea6565b91506137928261372b565b604082019050919050565b600060208201905081810360008301526137b68161377a565b9050919050565b7f4552433732313a20617070726f76652063616c6c6572206973206e6f74206f7760008201527f6e6572206e6f7220617070726f76656420666f7220616c6c0000000000000000602082015250565b6000613819603883612ea6565b9150613824826137bd565b604082019050919050565b600060208201905081810360008301526138488161380c565b9050919050565b7f4e487b7100000000000000000000000000000000000000000000000000000000600052603260045260246000fd5b7f4552433732313a207472616e736665722063616c6c6572206973206e6f74206f60008201527f776e6572206e6f7220617070726f766564000000000000000000000000000000602082015250565b60006138da603183612ea6565b91506138e58261387e565b604082019050919050565b60006020820190508181036000830152613909816138cd565b9050919050565b60008160000b9050919050565b600061392882613910565b9150607f820361393b5761393a6135e1565b5b600182019050919050565b600061395182613910565b91507fffffffffffffffffffffffffffffffffffffffffffffffffffffffffffffff808203613983576139826135e1565b5b600182039050919050565b600061399982612f56565b91507fffffffffffffffffffffffffffffffffffffffffffffffffffffffffffffffff82036139cb576139ca6135e1565b5b600182019050919050565b7f4f776e61626c653a2063616c6c6572206973206e6f7420746865206f776e6572600082015250565b6000613a0c602083612ea6565b9150613a17826139d6565b602082019050919050565b60006020820190508181036000830152613a3b816139ff565b9050919050565b7f4552433732313a206f776e657220717565727920666f72206e6f6e657869737460008201527f656e7420746f6b656e0000000000000000000000000000000000000000000000602082015250565b6000613a9e602983612ea6565b9150613aa982613a42565b604082019050919050565b60006020820190508181036000830152613acd81613a91565b9050919050565b7f4552433732313a2062616c616e636520717565727920666f7220746865207a6560008201527f726f206164647265737300000000000000000000000000000000000000000000602082015250565b6000613b30602a83612ea6565b9150613b3b82613ad4565b604082019050919050565b60006020820190508181036000830152613b5f81613b23565b9050919050565b6000613b7182612f56565b9150613b7c83612f56565b925082821015613b8f57613b8e6135e1565b5b828203905092915050565b6000819050919050565b613bb5613bb082612f56565b613b9a565b82525050565b6000613bc78284613ba4565b60208201915081905092915050565b7f4e487b7100000000000000000000000000000000000000000000000000000000600052601260045260246000fd5b6000613c1082612f56565b9150613c1b83612f56565b925082613c2b57613c2a613bd6565b5b828206905092915050565b6000613c4182612f56565b9150613c4c83612f56565b9250827fffffffffffffffffffffffffffffffffffffffffffffffffffffffffffffffff03821115613c8157613c806135e1565b5b828201905092915050565b7f4552433732314d657461646174613a2055524920717565727920666f72206e6f60008201527f6e6578697374656e7420746f6b656e0000000000000000000000000000000000602082015250565b6000613ce8602f83612ea6565b9150613cf382613c8c565b604082019050919050565b60006020820190508181036000830152613d1781613cdb565b9050919050565b600081905092915050565b6000613d3482612e9b565b613d3e8185613d1e565b9350613d4e818560208601612eb7565b80840191505092915050565b6000613d668285613d29565b9150613d728284613d29565b91508190509392505050565b7f4f776e61626c653a206e6577206f776e657220697320746865207a65726f206160008201527f6464726573730000000000000000000000000000000000000000000000000000602082015250565b6000613dda602683612ea6565b9150613de582613d7e565b604082019050919050565b60006020820190508181036000830152613e0981613dcd565b9050919050565b7f4552433732313a206d696e7420746f20746865207a65726f2061646472657373600082015250565b6000613e46602083612ea6565b9150613e5182613e10565b602082019050919050565b60006020820190508181036000830152613e7581613e39565b9050919050565b7f4552433732313a20746f6b656e20616c7265616479206d696e74656400000000600082015250565b6000613eb2601c83612ea6565b9150613ebd82613e7c565b602082019050919050565b60006020820190508181036000830152613ee181613ea5565b9050919050565b7f4552433732313a206f70657261746f7220717565727920666f72206e6f6e657860008201527f697374656e7420746f6b656e0000000000000000000000000000000000000000602082015250565b6000613f44602c83612ea6565b9150613f4f82613ee8565b604082019050919050565b60006020820190508181036000830152613f7381613f37565b9050919050565b6000613f8582612e35565b915060008203613f9857613f976135e1565b5b600182039050919050565b7f4552433732313a207472616e736665722066726f6d20696e636f72726563742060008201527f6f776e6572000000000000000000000000000000000000000000000000000000602082015250565b6000613fff602583612ea6565b915061400a82613fa3565b604082019050919050565b6000602082019050818103600083015261402e81613ff2565b9050919050565b7f4552433732313a207472616e7366657220746f20746865207a65726f2061646460008201527f7265737300000000000000000000000000000000000000000000000000000000602082015250565b6000614091602483612ea6565b915061409c82614035565b604082019050919050565b600060208201905081810360008301526140c081614084565b9050919050565b7f4552433732313a20617070726f766520746f2063616c6c657200000000000000600082015250565b60006140fd601983612ea6565b9150614108826140c7565b602082019050919050565b6000602082019050818103600083015261412c816140f0565b9050919050565b7f4552433732313a207472616e7366657220746f206e6f6e20455243373231526560008201527f63656976657220696d706c656d656e7465720000000000000000000000000000602082015250565b600061418f603283612ea6565b915061419a82614133565b604082019050919050565b600060208201905081810360008301526141be81614182565b9050919050565b60006141d082612f56565b91506141db83612f56565b9250826141eb576141ea613bd6565b5b828204905092915050565b600081519050919050565b600082825260208201905092915050565b600061421d826141f6565b6142278185614201565b9350614237818560208601612eb7565b61424081612eea565b840191505092915050565b60006080820190506142606000830187612feb565b61426d6020830186612feb565b61427a604083018561316b565b818103606083015261428c8184614212565b905095945050505050565b6000815190506142a681612da6565b92915050565b6000602082840312156142c2576142c1612d70565b5b60006142d084828501614297565b9150509291505056fea2646970667358221220b23b6233736b687ee03a1cff9cb49166510068f78e189f4cbe0265501b679c8664736f6c634300080d0033",
  "immutableReferences": {},
  "source": "// SPDX-License-Identifier: MIT\n//  La licence permet de prciser notre position juridique sur notre code, elle est obligatoire\npragma solidity ^0.8.9;\n// versions de solidity supportes\n\nimport \"@openzeppelin/contracts/token/ERC721/ERC721.sol\";\n//importation du contract ERC721 de openzeppelin\n//  pour qu'il marche il faut installer les contracts avec npm install @openzeppelin/contracts\n// il faut aussi configurer le \"solidity.defaultCompiler\": \"localNodeModule\" dans les paramtres vscode\nimport \"@openzeppelin/contracts/access/Ownable.sol\";\nimport \"./safemath.sol\";\n\n\ncontract Barricard is ERC721, Ownable {\n\n    struct Card {\n        uint id;\n        uint8 puissance;\n        bool isInDeck;\n    }\n\n    using SafeMath for uint256;\n    using SafeMath32 for uint32;\n    using SafeMath16 for uint16;\n\n    Card[] public cards;\n\n    uint puissanceDigits = 16;\n    uint puissanceModulus = 10 ** puissanceDigits;\n\n    mapping (address => uint8) public OwnerToWin;\n    mapping (address => uint8) ownerCardInDeckCount;\n    mapping (uint => address) CardApprovals;\n    mapping (address => mapping(address => bool)) public BattleApprovals;\n\n    constructor() ERC721(\"Card\",\"BCD\") {\n    }\n\n    modifier onlyOwnerOf(uint _cardId) {\n        require(msg.sender == ownerOf(_cardId));\n        _;\n    }\n\n    function addCardInDeck(uint _cardId) public onlyOwnerOf(_cardId){ //passer une carte en parametre\n        //Check si ownerCardInDeckCount est plus petit que 10 (taille max du deck)\n        //Passer la variable isInDeck  True (revient a ajouter la carte au Deck)\n        //incrementer ownerCardInDeckCount de 1\n        require(ownerCardInDeckCount[msg.sender]<10);\n        require(cards[_cardId].isInDeck == false);\n        _addCardInDeck(_cardId, msg.sender);\n    }\n\n    function _addCardInDeck(uint _cardId, address cardOwner) internal {\n        cards[_cardId].isInDeck = true;\n        ownerCardInDeckCount[cardOwner]++;\n    }\n\n    function removeCardInDeck(uint _cardId) public onlyOwnerOf(_cardId) { //passer une carte en parametre\n        //Check si ownerCardInDeckCount est plus grand que 0 (taille min du deck)\n        //Passer la variable isInDeck de la carte  False (revient a supprimer la carte du Deck)\n        //decrementer ownerCardInDeckCount de 1\n        require(ownerCardInDeckCount[msg.sender]>0);\n        require(cards[_cardId].isInDeck == true);\n        _removeCardInDeck(_cardId, msg.sender);\n    }\n\n    function _removeCardInDeck(uint _cardId, address cardOwner) internal {\n        cards[_cardId].isInDeck = false;\n        ownerCardInDeckCount[cardOwner]--;\n    }\n\n    function getIsInDeck(uint _cardId) external view onlyOwnerOf(_cardId) returns(bool) {\n        return(cards[_cardId].isInDeck);\n    }\n\n    // function approve(address _approved, uint256 _cardId) public override onlyOwnerOf(_cardId) {\n    //     CardApprovals[_cardId] = _approved;\n    //     emit Approval(msg.sender, _approved, _cardId);\n    // }\n\n    // function takeOwnership(uint256 _cardId) public {\n    //     require(CardApprovals[_cardId] == msg.sender);\n    //     address owner = ownerOf(_cardId);\n    //     _transfer(owner, msg.sender, _cardId);\n    // }\n\n    //problme : pour afficher les cartes du Deck c'est compliqu (il faut parcourir toutes les cartes \n    //  et selectionner seulement celles qui ont isInDeck a True\n    function _cardShuffle(uint[] memory deck) public view returns(uint[] memory) { //repasser en internal\n        //Deux possibilites\n        //ajouter un variable  la structure de Card pour indiquer son rang dans le deck\n        //ne pas ecrire cette fonction et effectuer le choix aleatoire pdt cardBattle \n        //  -> prendre une carte alatoire parmis celle du joueur qui ont isInDeck  True et n'ont pas encore ete jou\n        //  Besoin d'ajouter une varaible : hasBeenPlayed dans dans la struct de card\n\n        for (uint256 i = 0; i < deck.length; i++) {\n            uint256 n = i + uint256(keccak256(abi.encodePacked(block.timestamp))) % (deck.length - i);\n            uint256 temp = deck[n];\n            deck[n] = deck[i];\n            deck[i] = temp;\n        }\n\n        return(deck);\n    }\n\n    function min(uint256 a, uint256 b) internal pure returns (uint256) {\n        return a <= b ? a : b;\n    }\n\n    function battleApproval(address adrj) public {\n        require(BattleApprovals[msg.sender][adrj] == false);\n        BattleApprovals[msg.sender][adrj] = true;\n    }\n\n    function battleDisapproval(address adrj) public {\n        require(BattleApprovals[msg.sender][adrj] == true);\n        BattleApprovals[msg.sender][adrj] = false;\n    }\n\n    function _cardBattle(address adrj) public{ //address des deux joueurs \n        require(BattleApprovals[adrj][msg.sender] == true);\n        BattleApprovals[adrj][msg.sender] = false;\n        BattleApprovals[msg.sender][adrj] = false;\n        // Variable interne : compteur de point pour chaque joueur\n\n        //boucle x10 (ou max du nombre de carte dans les decks)\n            //comparer les cartes des deux joueurs et changer les variable internes en fonction\n        \n        //Retourner le resultat du match \n        //  (voir pour modifier un variable globale, peut etre plus securis)\n\n        uint[] memory deck1 = getCardsInDeckByOwner(msg.sender);\n        deck1 = _cardShuffle(deck1);\n        uint[] memory deck2 = getCardsInDeckByOwner(adrj);\n        deck2 = _cardShuffle(deck2);\n\n        int8 score = 0;\n\n        for (uint i = 0; i < min(deck1.length, deck2.length); i++){\n            if (cards[deck1[i]].puissance>cards[deck2[i]].puissance) { //On pourrait directement melanger les puissances au lieu des indices\n                score++;\n            }\n            else if (cards[deck1[i]].puissance<cards[deck2[i]].puissance){\n                score--;\n            }\n        }\n\n        if (score>0){\n            OwnerToWin[msg.sender]++;\n        }\n        else if (score<0) {\n            OwnerToWin[adrj]++;\n        }\n    }\n\n    function getCardsByOwner(address _owner) external view returns(uint[] memory) {\n        uint[] memory result = new uint[](balanceOf(_owner));\n        uint counter = 0;\n        for (uint i = 0; i < cards.length; i++) {\n            if (ownerOf(i) == _owner) {\n                result[counter] = i;\n                counter++;\n            }\n        }\n        return result;\n    }\n\n    function getCardsInDeckByOwner(address _owner) public view returns(uint[] memory) { //changer public\n        uint[] memory result = new uint[](ownerCardInDeckCount[_owner]);\n        uint counter = 0;\n        for (uint i = 0; i < cards.length; i++) {\n            if (ownerOf(i) == _owner && cards[i].isInDeck == true) {\n                result[counter] = i;\n                counter++;\n            }\n        }\n        return result;\n    }\n\n    function _createCard(uint8 puissance) public { //repasser en internal\n        uint id = cards.length;\n        _mint(msg.sender, id);\n        if(ownerCardInDeckCount[msg.sender]<10){\n            cards.push(Card(id,puissance,true));\n            ownerCardInDeckCount[msg.sender] ++; // penser a modifier cette variable lors des tranferts\n        }\n        else{\n            cards.push(Card(id,puissance,false));\n        }\n    }\n\n    function transferFrom(\n        address from,\n        address to,\n        uint256 tokenId\n    ) public virtual override {\n        //solhint-disable-next-line max-line-length\n        require(_isApprovedOrOwner(_msgSender(), tokenId), \"ERC721: transfer caller is not owner nor approved\");\n\n        _removeCardInDeck(tokenId, from);\n        _transfer(from, to, tokenId);\n    }\n\n    function createRandomCard() public {\n        uint8 puissance = uint8(uint256(keccak256(abi.encodePacked(block.timestamp))) % 256);\n        _createCard(puissance);\n    }\n\n    function kill() public onlyOwner {\n        selfdestruct(payable(owner()));\n    }\n\n}",
  "sourcePath": "/Users/arthurtheillier/Documents/BarriCard/contracts/Barricard.sol",
  "compiler": {
    "name": "solc",
    "version": "0.8.13+commit.abaa5c0e.Emscripten.clang"
  },
  "schemaVersion": "3.4.6",
  "updatedAt": "2022-06-10T15:01:42.596Z",
  "networkType": "ethereum",
  "devdoc": {
    "kind": "dev",
    "methods": {
      "approve(address,uint256)": {
        "details": "See {IERC721-approve}."
      },
      "balanceOf(address)": {
        "details": "See {IERC721-balanceOf}."
      },
      "getApproved(uint256)": {
        "details": "See {IERC721-getApproved}."
      },
      "isApprovedForAll(address,address)": {
        "details": "See {IERC721-isApprovedForAll}."
      },
      "name()": {
        "details": "See {IERC721Metadata-name}."
      },
      "owner()": {
        "details": "Returns the address of the current owner."
      },
      "ownerOf(uint256)": {
        "details": "See {IERC721-ownerOf}."
      },
      "renounceOwnership()": {
        "details": "Leaves the contract without owner. It will not be possible to call `onlyOwner` functions anymore. Can only be called by the current owner. NOTE: Renouncing ownership will leave the contract without an owner, thereby removing any functionality that is only available to the owner."
      },
      "safeTransferFrom(address,address,uint256)": {
        "details": "See {IERC721-safeTransferFrom}."
      },
      "safeTransferFrom(address,address,uint256,bytes)": {
        "details": "See {IERC721-safeTransferFrom}."
      },
      "setApprovalForAll(address,bool)": {
        "details": "See {IERC721-setApprovalForAll}."
      },
      "supportsInterface(bytes4)": {
        "details": "See {IERC165-supportsInterface}."
      },
      "symbol()": {
        "details": "See {IERC721Metadata-symbol}."
      },
      "tokenURI(uint256)": {
        "details": "See {IERC721Metadata-tokenURI}."
      },
      "transferFrom(address,address,uint256)": {
        "details": "See {IERC721-transferFrom}."
      },
      "transferOwnership(address)": {
        "details": "Transfers ownership of the contract to a new account (`newOwner`). Can only be called by the current owner."
      }
    },
    "version": 1
  },
  "userdoc": {
    "kind": "user",
    "methods": {},
    "version": 1
  }
}