{
  "contractName": "Barricard",
  "abi": [
    {
      "inputs": [],
      "stateMutability": "nonpayable",
      "type": "constructor"
    },
    {
      "anonymous": false,
      "inputs": [
        {
          "indexed": true,
          "internalType": "address",
          "name": "owner",
          "type": "address"
        },
        {
          "indexed": true,
          "internalType": "address",
          "name": "approved",
          "type": "address"
        },
        {
          "indexed": true,
          "internalType": "uint256",
          "name": "tokenId",
          "type": "uint256"
        }
      ],
      "name": "Approval",
      "type": "event"
    },
    {
      "anonymous": false,
      "inputs": [
        {
          "indexed": true,
          "internalType": "address",
          "name": "owner",
          "type": "address"
        },
        {
          "indexed": true,
          "internalType": "address",
          "name": "operator",
          "type": "address"
        },
        {
          "indexed": false,
          "internalType": "bool",
          "name": "approved",
          "type": "bool"
        }
      ],
      "name": "ApprovalForAll",
      "type": "event"
    },
    {
      "anonymous": false,
      "inputs": [
        {
          "indexed": false,
          "internalType": "uint256",
          "name": "_id",
          "type": "uint256"
        },
        {
          "indexed": false,
          "internalType": "uint8",
          "name": "_puissance",
          "type": "uint8"
        },
        {
          "indexed": false,
          "internalType": "bool",
          "name": "_isInDeck",
          "type": "bool"
        }
      ],
      "name": "NewCard",
      "type": "event"
    },
    {
      "anonymous": false,
      "inputs": [
        {
          "indexed": true,
          "internalType": "address",
          "name": "from",
          "type": "address"
        },
        {
          "indexed": true,
          "internalType": "address",
          "name": "to",
          "type": "address"
        },
        {
          "indexed": true,
          "internalType": "uint256",
          "name": "tokenId",
          "type": "uint256"
        }
      ],
      "name": "Transfer",
      "type": "event"
    },
    {
      "inputs": [
        {
          "internalType": "address",
          "name": "owner",
          "type": "address"
        }
      ],
      "name": "balanceOf",
      "outputs": [
        {
          "internalType": "uint256",
          "name": "",
          "type": "uint256"
        }
      ],
      "stateMutability": "view",
      "type": "function"
    },
    {
      "inputs": [
        {
          "internalType": "uint256",
          "name": "",
          "type": "uint256"
        }
      ],
      "name": "cardToOwner",
      "outputs": [
        {
          "internalType": "address",
          "name": "",
          "type": "address"
        }
      ],
      "stateMutability": "view",
      "type": "function"
    },
    {
      "inputs": [
        {
          "internalType": "uint256",
          "name": "",
          "type": "uint256"
        }
      ],
      "name": "cards",
      "outputs": [
        {
          "internalType": "uint256",
          "name": "id",
          "type": "uint256"
        },
        {
          "internalType": "uint8",
          "name": "puissance",
          "type": "uint8"
        },
        {
          "internalType": "bool",
          "name": "isInDeck",
          "type": "bool"
        }
      ],
      "stateMutability": "view",
      "type": "function"
    },
    {
      "inputs": [
        {
          "internalType": "uint256",
          "name": "tokenId",
          "type": "uint256"
        }
      ],
      "name": "getApproved",
      "outputs": [
        {
          "internalType": "address",
          "name": "",
          "type": "address"
        }
      ],
      "stateMutability": "view",
      "type": "function"
    },
    {
      "inputs": [
        {
          "internalType": "address",
          "name": "owner",
          "type": "address"
        },
        {
          "internalType": "address",
          "name": "operator",
          "type": "address"
        }
      ],
      "name": "isApprovedForAll",
      "outputs": [
        {
          "internalType": "bool",
          "name": "",
          "type": "bool"
        }
      ],
      "stateMutability": "view",
      "type": "function"
    },
    {
      "inputs": [],
      "name": "name",
      "outputs": [
        {
          "internalType": "string",
          "name": "",
          "type": "string"
        }
      ],
      "stateMutability": "view",
      "type": "function"
    },
    {
      "inputs": [
        {
          "internalType": "uint256",
          "name": "tokenId",
          "type": "uint256"
        }
      ],
      "name": "ownerOf",
      "outputs": [
        {
          "internalType": "address",
          "name": "",
          "type": "address"
        }
      ],
      "stateMutability": "view",
      "type": "function"
    },
    {
      "inputs": [
        {
          "internalType": "address",
          "name": "from",
          "type": "address"
        },
        {
          "internalType": "address",
          "name": "to",
          "type": "address"
        },
        {
          "internalType": "uint256",
          "name": "tokenId",
          "type": "uint256"
        }
      ],
      "name": "safeTransferFrom",
      "outputs": [],
      "stateMutability": "nonpayable",
      "type": "function"
    },
    {
      "inputs": [
        {
          "internalType": "address",
          "name": "from",
          "type": "address"
        },
        {
          "internalType": "address",
          "name": "to",
          "type": "address"
        },
        {
          "internalType": "uint256",
          "name": "tokenId",
          "type": "uint256"
        },
        {
          "internalType": "bytes",
          "name": "_data",
          "type": "bytes"
        }
      ],
      "name": "safeTransferFrom",
      "outputs": [],
      "stateMutability": "nonpayable",
      "type": "function"
    },
    {
      "inputs": [
        {
          "internalType": "address",
          "name": "operator",
          "type": "address"
        },
        {
          "internalType": "bool",
          "name": "approved",
          "type": "bool"
        }
      ],
      "name": "setApprovalForAll",
      "outputs": [],
      "stateMutability": "nonpayable",
      "type": "function"
    },
    {
      "inputs": [
        {
          "internalType": "bytes4",
          "name": "interfaceId",
          "type": "bytes4"
        }
      ],
      "name": "supportsInterface",
      "outputs": [
        {
          "internalType": "bool",
          "name": "",
          "type": "bool"
        }
      ],
      "stateMutability": "view",
      "type": "function"
    },
    {
      "inputs": [],
      "name": "symbol",
      "outputs": [
        {
          "internalType": "string",
          "name": "",
          "type": "string"
        }
      ],
      "stateMutability": "view",
      "type": "function"
    },
    {
      "inputs": [
        {
          "internalType": "uint256",
          "name": "tokenId",
          "type": "uint256"
        }
      ],
      "name": "tokenURI",
      "outputs": [
        {
          "internalType": "string",
          "name": "",
          "type": "string"
        }
      ],
      "stateMutability": "view",
      "type": "function"
    },
    {
      "inputs": [
        {
          "internalType": "address",
          "name": "from",
          "type": "address"
        },
        {
          "internalType": "address",
          "name": "to",
          "type": "address"
        },
        {
          "internalType": "uint256",
          "name": "tokenId",
          "type": "uint256"
        }
      ],
      "name": "transferFrom",
      "outputs": [],
      "stateMutability": "nonpayable",
      "type": "function"
    },
    {
      "inputs": [
        {
          "internalType": "uint256",
          "name": "_cardId",
          "type": "uint256"
        }
      ],
      "name": "addCardInDeck",
      "outputs": [],
      "stateMutability": "nonpayable",
      "type": "function"
    },
    {
      "inputs": [
        {
          "internalType": "uint256",
          "name": "_cardId",
          "type": "uint256"
        }
      ],
      "name": "removeCardInDeck",
      "outputs": [],
      "stateMutability": "nonpayable",
      "type": "function"
    },
    {
      "inputs": [
        {
          "internalType": "address",
          "name": "_approved",
          "type": "address"
        },
        {
          "internalType": "uint256",
          "name": "_cardId",
          "type": "uint256"
        }
      ],
      "name": "approve",
      "outputs": [],
      "stateMutability": "nonpayable",
      "type": "function"
    },
    {
      "inputs": [
        {
          "internalType": "uint256",
          "name": "_cardId",
          "type": "uint256"
        }
      ],
      "name": "takeOwnership",
      "outputs": [],
      "stateMutability": "nonpayable",
      "type": "function"
    },
    {
      "inputs": [
        {
          "internalType": "address",
          "name": "adrj1",
          "type": "address"
        },
        {
          "internalType": "address",
          "name": "adrj2",
          "type": "address"
        }
      ],
      "name": "_cardBattle",
      "outputs": [],
      "stateMutability": "nonpayable",
      "type": "function"
    },
    {
      "inputs": [
        {
          "internalType": "address",
          "name": "_owner",
          "type": "address"
        }
      ],
      "name": "getCardsByOwner",
      "outputs": [
        {
          "internalType": "uint256[]",
          "name": "",
          "type": "uint256[]"
        }
      ],
      "stateMutability": "view",
      "type": "function"
    },
    {
      "inputs": [
        {
          "internalType": "string",
          "name": "_name",
          "type": "string"
        }
      ],
      "name": "createRandomCard",
      "outputs": [],
      "stateMutability": "nonpayable",
      "type": "function"
    }
  ],
  "bytecode": "0x60806040526010600c55600c54600a6200001a9190620002c2565b600d553480156200002a57600080fd5b50604051806020016040528060008152506040518060200160405280600081525081600090805190602001906200006392919062000085565b5080600190805190602001906200007c92919062000085565b50505062000377565b828054620000939062000342565b90600052602060002090601f016020900481019282620000b7576000855562000103565b82601f10620000d257805160ff191683800117855562000103565b8280016001018555821562000103579182015b8281111562000102578251825591602001919060010190620000e5565b5b50905062000112919062000116565b5090565b5b808211156200013157600081600090555060010162000117565b5090565b7f4e487b7100000000000000000000000000000000000000000000000000000000600052601160045260246000fd5b60008160011c9050919050565b6000808291508390505b6001851115620001c3578086048111156200019b576200019a62000135565b5b6001851615620001ab5780820291505b8081029050620001bb8562000164565b94506200017b565b94509492505050565b600082620001de5760019050620002b1565b81620001ee5760009050620002b1565b8160018114620002075760028114620002125762000248565b6001915050620002b1565b60ff84111562000227576200022662000135565b5b8360020a91508482111562000241576200024062000135565b5b50620002b1565b5060208310610133831016604e8410600b8410161715620002825782820a9050838111156200027c576200027b62000135565b5b620002b1565b62000291848484600162000171565b92509050818404811115620002ab57620002aa62000135565b5b81810290505b9392505050565b6000819050919050565b6000620002cf82620002b8565b9150620002dc83620002b8565b92506200030b7fffffffffffffffffffffffffffffffffffffffffffffffffffffffffffffffff8484620001cc565b905092915050565b7f4e487b7100000000000000000000000000000000000000000000000000000000600052602260045260246000fd5b600060028204905060018216806200035b57607f821691505b60208210810362000371576200037062000313565b5b50919050565b6134e080620003876000396000f3fe608060405234801561001057600080fd5b50600436106101375760003560e01c8063771ab73c116100b8578063b2e6ceeb1161007c578063b2e6ceeb1461034a578063b88d4fde14610366578063c87b56dd14610382578063e985e9c5146103b2578063eba73c7c146103e2578063ffb976ec1461041257610137565b8063771ab73c146102a657806377cf9945146102c25780638dc10768146102de57806395d89b4114610310578063a22cb4651461032e57610137565b806323b872dd116100ff57806323b872dd146101f257806342842e0e1461020e5780634575981e1461022a5780636352211e1461024657806370a082311461027657610137565b806301ffc9a71461013c57806306fdde031461016c578063081812fc1461018a578063095ea7b3146101ba57806317711699146101d6575b600080fd5b6101566004803603810190610151919061226a565b610442565b60405161016391906122b2565b60405180910390f35b610174610524565b6040516101819190612366565b60405180910390f35b6101a4600480360381019061019f91906123be565b6105b6565b6040516101b1919061242c565b60405180910390f35b6101d460048036038101906101cf9190612473565b61063b565b005b6101f060048036038101906101eb91906123be565b610759565b005b61020c600480360381019061020791906124b3565b6108d8565b005b610228600480360381019061022391906124b3565b610938565b005b610244600480360381019061023f919061263b565b610958565b005b610260600480360381019061025b91906123be565b6109e7565b60405161026d919061242c565b60405180910390f35b610290600480360381019061028b9190612684565b610a98565b60405161029d91906126c0565b60405180910390f35b6102c060048036038101906102bb91906123be565b610b4f565b005b6102dc60048036038101906102d791906126db565b610cce565b005b6102f860048036038101906102f391906123be565b610ed0565b60405161030793929190612737565b60405180910390f35b610318610f24565b6040516103259190612366565b60405180910390f35b6103486004803603810190610343919061279a565b610fb6565b005b610364600480360381019061035f91906123be565b610fcc565b005b610380600480360381019061037b919061287b565b611053565b005b61039c600480360381019061039791906123be565b6110b5565b6040516103a99190612366565b60405180910390f35b6103cc60048036038101906103c791906126db565b61115c565b6040516103d991906122b2565b60405180910390f35b6103fc60048036038101906103f79190612684565b6111f0565b60405161040991906129bc565b60405180910390f35b61042c600480360381019061042791906123be565b611352565b604051610439919061242c565b60405180910390f35b60007f80ac58cd000000000000000000000000000000000000000000000000000000007bffffffffffffffffffffffffffffffffffffffffffffffffffffffff1916827bffffffffffffffffffffffffffffffffffffffffffffffffffffffff1916148061050d57507f5b5e139f000000000000000000000000000000000000000000000000000000007bffffffffffffffffffffffffffffffffffffffffffffffffffffffff1916827bffffffffffffffffffffffffffffffffffffffffffffffffffffffff1916145b8061051d575061051c82611385565b5b9050919050565b60606000805461053390612a0d565b80601f016020809104026020016040519081016040528092919081815260200182805461055f90612a0d565b80156105ac5780601f10610581576101008083540402835291602001916105ac565b820191906000526020600020905b81548152906001019060200180831161058f57829003601f168201915b5050505050905090565b60006105c1826113ef565b610600576040517f08c379a00000000000000000000000000000000000000000000000000000000081526004016105f790612ab0565b60405180910390fd5b6004600083815260200190815260200160002060009054906101000a900473ffffffffffffffffffffffffffffffffffffffff169050919050565b806007600082815260200190815260200160002060009054906101000a900473ffffffffffffffffffffffffffffffffffffffff1673ffffffffffffffffffffffffffffffffffffffff163373ffffffffffffffffffffffffffffffffffffffff16146106a757600080fd5b82600b600084815260200190815260200160002060006101000a81548173ffffffffffffffffffffffffffffffffffffffff021916908373ffffffffffffffffffffffffffffffffffffffff160217905550818373ffffffffffffffffffffffffffffffffffffffff163373ffffffffffffffffffffffffffffffffffffffff167f8c5be1e5ebec7d5bd14f71427d1e84f3dd0314c0f7b2291e5b200ac8c7c3b92560405160405180910390a4505050565b806007600082815260200190815260200160002060009054906101000a900473ffffffffffffffffffffffffffffffffffffffff1673ffffffffffffffffffffffffffffffffffffffff163373ffffffffffffffffffffffffffffffffffffffff16146107c557600080fd5b600a600960003373ffffffffffffffffffffffffffffffffffffffff1673ffffffffffffffffffffffffffffffffffffffff16815260200190815260200160002060009054906101000a900460ff1660ff161061082157600080fd5b60016006838154811061083757610836612ad0565b5b906000526020600020906002020160010160016101000a81548160ff021916908315150217905550600960003373ffffffffffffffffffffffffffffffffffffffff1673ffffffffffffffffffffffffffffffffffffffff168152602001908152602001600020600081819054906101000a900460ff16809291906108bb90612b2e565b91906101000a81548160ff021916908360ff160217905550505050565b6108e96108e361145b565b82611463565b610928576040517f08c379a000000000000000000000000000000000000000000000000000000000815260040161091f90612bc9565b60405180910390fd5b610933838383611541565b505050565b61095383838360405180602001604052806000815250611053565b505050565b6000600860003373ffffffffffffffffffffffffffffffffffffffff1673ffffffffffffffffffffffffffffffffffffffff16815260200190815260200160002060009054906101000a900460ff1660ff16146109b457600080fd5b60006109bf826117a7565b90506064816109ce9190612c18565b816109d99190612c49565b90506109e36117ec565b5050565b6000806002600084815260200190815260200160002060009054906101000a900473ffffffffffffffffffffffffffffffffffffffff169050600073ffffffffffffffffffffffffffffffffffffffff168173ffffffffffffffffffffffffffffffffffffffff1603610a8f576040517f08c379a0000000000000000000000000000000000000000000000000000000008152600401610a8690612cef565b60405180910390fd5b80915050919050565b60008073ffffffffffffffffffffffffffffffffffffffff168273ffffffffffffffffffffffffffffffffffffffff1603610b08576040517f08c379a0000000000000000000000000000000000000000000000000000000008152600401610aff90612d81565b60405180910390fd5b600360008373ffffffffffffffffffffffffffffffffffffffff1673ffffffffffffffffffffffffffffffffffffffff168152602001908152602001600020549050919050565b806007600082815260200190815260200160002060009054906101000a900473ffffffffffffffffffffffffffffffffffffffff1673ffffffffffffffffffffffffffffffffffffffff163373ffffffffffffffffffffffffffffffffffffffff1614610bbb57600080fd5b6000600960003373ffffffffffffffffffffffffffffffffffffffff1673ffffffffffffffffffffffffffffffffffffffff16815260200190815260200160002060009054906101000a900460ff1660ff1611610c1757600080fd5b600060068381548110610c2d57610c2c612ad0565b5b906000526020600020906002020160010160016101000a81548160ff021916908315150217905550600960003373ffffffffffffffffffffffffffffffffffffffff1673ffffffffffffffffffffffffffffffffffffffff168152602001908152602001600020600081819054906101000a900460ff1680929190610cb190612da1565b91906101000a81548160ff021916908360ff160217905550505050565b6000610cd9836119a5565b9050610ce481611b4a565b6000610cef836119a5565b9050610cfa81611b4a565b6000805b610d0a84518451611c38565b811015610dbf57828181518110610d2457610d23612ad0565b5b6020026020010151848281518110610d3f57610d3e612ad0565b5b60200260200101511115610d60578180610d5890612dd7565b925050610dac565b828181518110610d7357610d72612ad0565b5b6020026020010151848281518110610d8e57610d8d612ad0565b5b60200260200101511015610dab578180610da790612e00565b9250505b5b8080610db790612e48565b915050610cfe565b5060008160000b1315610e4657600a60008673ffffffffffffffffffffffffffffffffffffffff1673ffffffffffffffffffffffffffffffffffffffff168152602001908152602001600020600081819054906101000a900460ff1680929190610e2890612b2e565b91906101000a81548160ff021916908360ff16021790555050610ec9565b60008160000b1215610ec857600a60008573ffffffffffffffffffffffffffffffffffffffff1673ffffffffffffffffffffffffffffffffffffffff168152602001908152602001600020600081819054906101000a900460ff1680929190610eae90612b2e565b91906101000a81548160ff021916908360ff160217905550505b5b5050505050565b60068181548110610ee057600080fd5b90600052602060002090600202016000915090508060000154908060010160009054906101000a900460ff16908060010160019054906101000a900460ff16905083565b606060018054610f3390612a0d565b80601f0160208091040260200160405190810160405280929190818152602001828054610f5f90612a0d565b8015610fac5780601f10610f8157610100808354040283529160200191610fac565b820191906000526020600020905b815481529060010190602001808311610f8f57829003601f168201915b5050505050905090565b610fc8610fc161145b565b8383611c52565b5050565b3373ffffffffffffffffffffffffffffffffffffffff16600b600083815260200190815260200160002060009054906101000a900473ffffffffffffffffffffffffffffffffffffffff1673ffffffffffffffffffffffffffffffffffffffff161461103757600080fd5b6000611042826109e7565b905061104f813384611541565b5050565b61106461105e61145b565b83611463565b6110a3576040517f08c379a000000000000000000000000000000000000000000000000000000000815260040161109a90612bc9565b60405180910390fd5b6110af84848484611dbe565b50505050565b60606110c0826113ef565b6110ff576040517f08c379a00000000000000000000000000000000000000000000000000000000081526004016110f690612f02565b60405180910390fd5b6000611109611e1a565b905060008151116111295760405180602001604052806000815250611154565b8061113384611e31565b604051602001611144929190612f5e565b6040516020818303038152906040525b915050919050565b6000600560008473ffffffffffffffffffffffffffffffffffffffff1673ffffffffffffffffffffffffffffffffffffffff16815260200190815260200160002060008373ffffffffffffffffffffffffffffffffffffffff1673ffffffffffffffffffffffffffffffffffffffff16815260200190815260200160002060009054906101000a900460ff16905092915050565b60606000600860008473ffffffffffffffffffffffffffffffffffffffff1673ffffffffffffffffffffffffffffffffffffffff16815260200190815260200160002060009054906101000a900460ff1660ff1667ffffffffffffffff81111561125d5761125c612510565b5b60405190808252806020026020018201604052801561128b5781602001602082028036833780820191505090505b5090506000805b600680549050811015611347578473ffffffffffffffffffffffffffffffffffffffff166007600083815260200190815260200160002060009054906101000a900473ffffffffffffffffffffffffffffffffffffffff1673ffffffffffffffffffffffffffffffffffffffff1603611334578083838151811061131957611318612ad0565b5b602002602001018181525050818061133090612e48565b9250505b808061133f90612e48565b915050611292565b508192505050919050565b60076020528060005260406000206000915054906101000a900473ffffffffffffffffffffffffffffffffffffffff1681565b60007f01ffc9a7000000000000000000000000000000000000000000000000000000007bffffffffffffffffffffffffffffffffffffffffffffffffffffffff1916827bffffffffffffffffffffffffffffffffffffffffffffffffffffffff1916149050919050565b60008073ffffffffffffffffffffffffffffffffffffffff166002600084815260200190815260200160002060009054906101000a900473ffffffffffffffffffffffffffffffffffffffff1673ffffffffffffffffffffffffffffffffffffffff1614159050919050565b600033905090565b600061146e826113ef565b6114ad576040517f08c379a00000000000000000000000000000000000000000000000000000000081526004016114a490612ff4565b60405180910390fd5b60006114b8836109e7565b90508073ffffffffffffffffffffffffffffffffffffffff168473ffffffffffffffffffffffffffffffffffffffff16148061152757508373ffffffffffffffffffffffffffffffffffffffff1661150f846105b6565b73ffffffffffffffffffffffffffffffffffffffff16145b806115385750611537818561115c565b5b91505092915050565b8273ffffffffffffffffffffffffffffffffffffffff16611561826109e7565b73ffffffffffffffffffffffffffffffffffffffff16146115b7576040517f08c379a00000000000000000000000000000000000000000000000000000000081526004016115ae90613086565b60405180910390fd5b600073ffffffffffffffffffffffffffffffffffffffff168273ffffffffffffffffffffffffffffffffffffffff1603611626576040517f08c379a000000000000000000000000000000000000000000000000000000000815260040161161d90613118565b60405180910390fd5b611631838383611f91565b61163c600082611f96565b6001600360008573ffffffffffffffffffffffffffffffffffffffff1673ffffffffffffffffffffffffffffffffffffffff168152602001908152602001600020600082825461168c9190612c49565b925050819055506001600360008473ffffffffffffffffffffffffffffffffffffffff1673ffffffffffffffffffffffffffffffffffffffff16815260200190815260200160002060008282546116e39190613138565b92505081905550816002600083815260200190815260200160002060006101000a81548173ffffffffffffffffffffffffffffffffffffffff021916908373ffffffffffffffffffffffffffffffffffffffff160217905550808273ffffffffffffffffffffffffffffffffffffffff168473ffffffffffffffffffffffffffffffffffffffff167fddf252ad1be2c89b69c2b068fc378daa952ba7f163c4a11628f55a4df523b3ef60405160405180910390a46117a283838361204f565b505050565b600080826040516020016117bb919061318e565b6040516020818303038152906040528051906020012060001c9050600d54816117e49190612c18565b915050919050565b6006604051806060016040528060018152602001600860ff1681526020016000151581525090806001815401808255809150506001900390600052602060002090600202016000909190919091506000820151816000015560208201518160010160006101000a81548160ff021916908360ff16021790555060408201518160010160016101000a81548160ff02191690831515021790555050506000600160068054905061189b9190612c49565b9050336007600083815260200190815260200160002060006101000a81548173ffffffffffffffffffffffffffffffffffffffff021916908373ffffffffffffffffffffffffffffffffffffffff160217905550600860003373ffffffffffffffffffffffffffffffffffffffff1673ffffffffffffffffffffffffffffffffffffffff168152602001908152602001600020600081819054906101000a900460ff168092919061194b90612b2e565b91906101000a81548160ff021916908360ff160217905550507ff0388f4ea4ba854d3517606a792b6ff1fc4d5b7e64d01d0a0af5f3bf81f05b2960016008600060405161199a93929190613225565b60405180910390a150565b60606000600960008473ffffffffffffffffffffffffffffffffffffffff1673ffffffffffffffffffffffffffffffffffffffff16815260200190815260200160002060009054906101000a900460ff1660ff1667ffffffffffffffff811115611a1257611a11612510565b5b604051908082528060200260200182016040528015611a405781602001602082028036833780820191505090505b5090506000805b600680549050811015611b3f578473ffffffffffffffffffffffffffffffffffffffff166007600083815260200190815260200160002060009054906101000a900473ffffffffffffffffffffffffffffffffffffffff1673ffffffffffffffffffffffffffffffffffffffff16148015611af857506001151560068281548110611ad557611ad4612ad0565b5b906000526020600020906002020160010160019054906101000a900460ff161515145b15611b2c5780838381518110611b1157611b10612ad0565b5b6020026020010181815250508180611b2890612e48565b9250505b8080611b3790612e48565b915050611a47565b508192505050919050565b60005b8151811015611c34576000818351611b659190612c49565b42604051602001611b76919061327d565b6040516020818303038152906040528051906020012060001c611b999190612c18565b82611ba49190613138565b90506000838281518110611bbb57611bba612ad0565b5b60200260200101519050838381518110611bd857611bd7612ad0565b5b6020026020010151848381518110611bf357611bf2612ad0565b5b60200260200101818152505080848481518110611c1357611c12612ad0565b5b60200260200101818152505050508080611c2c90612e48565b915050611b4d565b5050565b600081831115611c485781611c4a565b825b905092915050565b8173ffffffffffffffffffffffffffffffffffffffff168373ffffffffffffffffffffffffffffffffffffffff1603611cc0576040517f08c379a0000000000000000000000000000000000000000000000000000000008152600401611cb7906132e4565b60405180910390fd5b80600560008573ffffffffffffffffffffffffffffffffffffffff1673ffffffffffffffffffffffffffffffffffffffff16815260200190815260200160002060008473ffffffffffffffffffffffffffffffffffffffff1673ffffffffffffffffffffffffffffffffffffffff16815260200190815260200160002060006101000a81548160ff0219169083151502179055508173ffffffffffffffffffffffffffffffffffffffff168373ffffffffffffffffffffffffffffffffffffffff167f17307eab39ab6107e8899845ad3d59bd9653f200f220920489ca2b5937696c3183604051611db191906122b2565b60405180910390a3505050565b611dc9848484611541565b611dd584848484612054565b611e14576040517f08c379a0000000000000000000000000000000000000000000000000000000008152600401611e0b90613376565b60405180910390fd5b50505050565b606060405180602001604052806000815250905090565b606060008203611e78576040518060400160405280600181526020017f30000000000000000000000000000000000000000000000000000000000000008152509050611f8c565b600082905060005b60008214611eaa578080611e9390612e48565b915050600a82611ea39190613396565b9150611e80565b60008167ffffffffffffffff811115611ec657611ec5612510565b5b6040519080825280601f01601f191660200182016040528015611ef85781602001600182028036833780820191505090505b5090505b60008514611f8557600182611f119190612c49565b9150600a85611f209190612c18565b6030611f2c9190613138565b60f81b818381518110611f4257611f41612ad0565b5b60200101907effffffffffffffffffffffffffffffffffffffffffffffffffffffffffffff1916908160001a905350600a85611f7e9190613396565b9450611efc565b8093505050505b919050565b505050565b816004600083815260200190815260200160002060006101000a81548173ffffffffffffffffffffffffffffffffffffffff021916908373ffffffffffffffffffffffffffffffffffffffff160217905550808273ffffffffffffffffffffffffffffffffffffffff16612009836109e7565b73ffffffffffffffffffffffffffffffffffffffff167f8c5be1e5ebec7d5bd14f71427d1e84f3dd0314c0f7b2291e5b200ac8c7c3b92560405160405180910390a45050565b505050565b60006120758473ffffffffffffffffffffffffffffffffffffffff166121db565b156121ce578373ffffffffffffffffffffffffffffffffffffffff1663150b7a0261209e61145b565b8786866040518563ffffffff1660e01b81526004016120c0949392919061341c565b6020604051808303816000875af19250505080156120fc57506040513d601f19601f820116820180604052508101906120f9919061347d565b60015b61217e573d806000811461212c576040519150601f19603f3d011682016040523d82523d6000602084013e612131565b606091505b506000815103612176576040517f08c379a000000000000000000000000000000000000000000000000000000000815260040161216d90613376565b60405180910390fd5b805181602001fd5b63150b7a0260e01b7bffffffffffffffffffffffffffffffffffffffffffffffffffffffff1916817bffffffffffffffffffffffffffffffffffffffffffffffffffffffff1916149150506121d3565b600190505b949350505050565b6000808273ffffffffffffffffffffffffffffffffffffffff163b119050919050565b6000604051905090565b600080fd5b600080fd5b60007fffffffff0000000000000000000000000000000000000000000000000000000082169050919050565b61224781612212565b811461225257600080fd5b50565b6000813590506122648161223e565b92915050565b6000602082840312156122805761227f612208565b5b600061228e84828501612255565b91505092915050565b60008115159050919050565b6122ac81612297565b82525050565b60006020820190506122c760008301846122a3565b92915050565b600081519050919050565b600082825260208201905092915050565b60005b838110156123075780820151818401526020810190506122ec565b83811115612316576000848401525b50505050565b6000601f19601f8301169050919050565b6000612338826122cd565b61234281856122d8565b93506123528185602086016122e9565b61235b8161231c565b840191505092915050565b60006020820190508181036000830152612380818461232d565b905092915050565b6000819050919050565b61239b81612388565b81146123a657600080fd5b50565b6000813590506123b881612392565b92915050565b6000602082840312156123d4576123d3612208565b5b60006123e2848285016123a9565b91505092915050565b600073ffffffffffffffffffffffffffffffffffffffff82169050919050565b6000612416826123eb565b9050919050565b6124268161240b565b82525050565b6000602082019050612441600083018461241d565b92915050565b6124508161240b565b811461245b57600080fd5b50565b60008135905061246d81612447565b92915050565b6000806040838503121561248a57612489612208565b5b60006124988582860161245e565b92505060206124a9858286016123a9565b9150509250929050565b6000806000606084860312156124cc576124cb612208565b5b60006124da8682870161245e565b93505060206124eb8682870161245e565b92505060406124fc868287016123a9565b9150509250925092565b600080fd5b600080fd5b7f4e487b7100000000000000000000000000000000000000000000000000000000600052604160045260246000fd5b6125488261231c565b810181811067ffffffffffffffff8211171561256757612566612510565b5b80604052505050565b600061257a6121fe565b9050612586828261253f565b919050565b600067ffffffffffffffff8211156125a6576125a5612510565b5b6125af8261231c565b9050602081019050919050565b82818337600083830152505050565b60006125de6125d98461258b565b612570565b9050828152602081018484840111156125fa576125f961250b565b5b6126058482856125bc565b509392505050565b600082601f83011261262257612621612506565b5b81356126328482602086016125cb565b91505092915050565b60006020828403121561265157612650612208565b5b600082013567ffffffffffffffff81111561266f5761266e61220d565b5b61267b8482850161260d565b91505092915050565b60006020828403121561269a57612699612208565b5b60006126a88482850161245e565b91505092915050565b6126ba81612388565b82525050565b60006020820190506126d560008301846126b1565b92915050565b600080604083850312156126f2576126f1612208565b5b60006127008582860161245e565b92505060206127118582860161245e565b9150509250929050565b600060ff82169050919050565b6127318161271b565b82525050565b600060608201905061274c60008301866126b1565b6127596020830185612728565b61276660408301846122a3565b949350505050565b61277781612297565b811461278257600080fd5b50565b6000813590506127948161276e565b92915050565b600080604083850312156127b1576127b0612208565b5b60006127bf8582860161245e565b92505060206127d085828601612785565b9150509250929050565b600067ffffffffffffffff8211156127f5576127f4612510565b5b6127fe8261231c565b9050602081019050919050565b600061281e612819846127da565b612570565b90508281526020810184848401111561283a5761283961250b565b5b6128458482856125bc565b509392505050565b600082601f83011261286257612861612506565b5b813561287284826020860161280b565b91505092915050565b6000806000806080858703121561289557612894612208565b5b60006128a38782880161245e565b94505060206128b48782880161245e565b93505060406128c5878288016123a9565b925050606085013567ffffffffffffffff8111156128e6576128e561220d565b5b6128f28782880161284d565b91505092959194509250565b600081519050919050565b600082825260208201905092915050565b6000819050602082019050919050565b61293381612388565b82525050565b6000612945838361292a565b60208301905092915050565b6000602082019050919050565b6000612969826128fe565b6129738185612909565b935061297e8361291a565b8060005b838110156129af5781516129968882612939565b97506129a183612951565b925050600181019050612982565b5085935050505092915050565b600060208201905081810360008301526129d6818461295e565b905092915050565b7f4e487b7100000000000000000000000000000000000000000000000000000000600052602260045260246000fd5b60006002820490506001821680612a2557607f821691505b602082108103612a3857612a376129de565b5b50919050565b7f4552433732313a20617070726f76656420717565727920666f72206e6f6e657860008201527f697374656e7420746f6b656e0000000000000000000000000000000000000000602082015250565b6000612a9a602c836122d8565b9150612aa582612a3e565b604082019050919050565b60006020820190508181036000830152612ac981612a8d565b9050919050565b7f4e487b7100000000000000000000000000000000000000000000000000000000600052603260045260246000fd5b7f4e487b7100000000000000000000000000000000000000000000000000000000600052601160045260246000fd5b6000612b398261271b565b915060ff8203612b4c57612b4b612aff565b5b600182019050919050565b7f4552433732313a207472616e736665722063616c6c6572206973206e6f74206f60008201527f776e6572206e6f7220617070726f766564000000000000000000000000000000602082015250565b6000612bb36031836122d8565b9150612bbe82612b57565b604082019050919050565b60006020820190508181036000830152612be281612ba6565b9050919050565b7f4e487b7100000000000000000000000000000000000000000000000000000000600052601260045260246000fd5b6000612c2382612388565b9150612c2e83612388565b925082612c3e57612c3d612be9565b5b828206905092915050565b6000612c5482612388565b9150612c5f83612388565b925082821015612c7257612c71612aff565b5b828203905092915050565b7f4552433732313a206f776e657220717565727920666f72206e6f6e657869737460008201527f656e7420746f6b656e0000000000000000000000000000000000000000000000602082015250565b6000612cd96029836122d8565b9150612ce482612c7d565b604082019050919050565b60006020820190508181036000830152612d0881612ccc565b9050919050565b7f4552433732313a2062616c616e636520717565727920666f7220746865207a6560008201527f726f206164647265737300000000000000000000000000000000000000000000602082015250565b6000612d6b602a836122d8565b9150612d7682612d0f565b604082019050919050565b60006020820190508181036000830152612d9a81612d5e565b9050919050565b6000612dac8261271b565b915060008203612dbf57612dbe612aff565b5b600182039050919050565b60008160000b9050919050565b6000612de282612dca565b9150607f8203612df557612df4612aff565b5b600182019050919050565b6000612e0b82612dca565b91507fffffffffffffffffffffffffffffffffffffffffffffffffffffffffffffff808203612e3d57612e3c612aff565b5b600182039050919050565b6000612e5382612388565b91507fffffffffffffffffffffffffffffffffffffffffffffffffffffffffffffffff8203612e8557612e84612aff565b5b600182019050919050565b7f4552433732314d657461646174613a2055524920717565727920666f72206e6f60008201527f6e6578697374656e7420746f6b656e0000000000000000000000000000000000602082015250565b6000612eec602f836122d8565b9150612ef782612e90565b604082019050919050565b60006020820190508181036000830152612f1b81612edf565b9050919050565b600081905092915050565b6000612f38826122cd565b612f428185612f22565b9350612f528185602086016122e9565b80840191505092915050565b6000612f6a8285612f2d565b9150612f768284612f2d565b91508190509392505050565b7f4552433732313a206f70657261746f7220717565727920666f72206e6f6e657860008201527f697374656e7420746f6b656e0000000000000000000000000000000000000000602082015250565b6000612fde602c836122d8565b9150612fe982612f82565b604082019050919050565b6000602082019050818103600083015261300d81612fd1565b9050919050565b7f4552433732313a207472616e736665722066726f6d20696e636f72726563742060008201527f6f776e6572000000000000000000000000000000000000000000000000000000602082015250565b60006130706025836122d8565b915061307b82613014565b604082019050919050565b6000602082019050818103600083015261309f81613063565b9050919050565b7f4552433732313a207472616e7366657220746f20746865207a65726f2061646460008201527f7265737300000000000000000000000000000000000000000000000000000000602082015250565b60006131026024836122d8565b915061310d826130a6565b604082019050919050565b60006020820190508181036000830152613131816130f5565b9050919050565b600061314382612388565b915061314e83612388565b9250827fffffffffffffffffffffffffffffffffffffffffffffffffffffffffffffffff0382111561318357613182612aff565b5b828201905092915050565b600061319a8284612f2d565b915081905092915050565b6000819050919050565b6000819050919050565b60006131d46131cf6131ca846131a5565b6131af565b612388565b9050919050565b6131e4816131b9565b82525050565b6000819050919050565b600061320f61320a613205846131ea565b6131af565b61271b565b9050919050565b61321f816131f4565b82525050565b600060608201905061323a60008301866131db565b6132476020830185613216565b61325460408301846122a3565b949350505050565b6000819050919050565b61327761327282612388565b61325c565b82525050565b60006132898284613266565b60208201915081905092915050565b7f4552433732313a20617070726f766520746f2063616c6c657200000000000000600082015250565b60006132ce6019836122d8565b91506132d982613298565b602082019050919050565b600060208201905081810360008301526132fd816132c1565b9050919050565b7f4552433732313a207472616e7366657220746f206e6f6e20455243373231526560008201527f63656976657220696d706c656d656e7465720000000000000000000000000000602082015250565b60006133606032836122d8565b915061336b82613304565b604082019050919050565b6000602082019050818103600083015261338f81613353565b9050919050565b60006133a182612388565b91506133ac83612388565b9250826133bc576133bb612be9565b5b828204905092915050565b600081519050919050565b600082825260208201905092915050565b60006133ee826133c7565b6133f881856133d2565b93506134088185602086016122e9565b6134118161231c565b840191505092915050565b6000608082019050613431600083018761241d565b61343e602083018661241d565b61344b60408301856126b1565b818103606083015261345d81846133e3565b905095945050505050565b6000815190506134778161223e565b92915050565b60006020828403121561349357613492612208565b5b60006134a184828501613468565b9150509291505056fea264697066735822122014583b162d189d225aad25b0f707bf696356a9d4c4da5a20ce2ed1d29a917af064736f6c634300080d0033",
  "immutableReferences": {},
  "source": "// SPDX-License-Identifier: MIT\n//  La licence permet de prciser notre position juridique sur notre code, elle est obligatoire\npragma solidity ^0.8.9;\n// versions de solidity supportes\n\nimport \"@openzeppelin/contracts/token/ERC721/ERC721.sol\";\n//importation du contract ERC721 de openzeppelin\n//  pour qu'il marche il faut installer les contracts avec npm install @openzeppelin/contracts\n// il faut aussi configurer le \"solidity.defaultCompiler\": \"localNodeModule\" dans les paramtres vscode\nimport \"@openzeppelin/contracts/access/Ownable.sol\";\nimport \"./safemath.sol\";\n\n\ncontract Barricard is ERC721 {\n    constructor() ERC721(\"\",\"\") {}\n\n    struct Card {\n        uint id;\n        uint8 puissance;\n        bool isInDeck;\n    }\n  using SafeMath for uint256;\n  using SafeMath32 for uint32;\n  using SafeMath16 for uint16;\n\n\n    Card[] public cards;\n\n    mapping (uint => address) public cardToOwner;\n    mapping (address => uint8) ownerCardCount;\n    mapping (address => uint8) ownerCardInDeckCount;\n    mapping (address => uint8) OwnerToWin;\n    mapping (uint => address) CardApprovals;\n\n    modifier onlyOwnerOf(uint _cardId) {\n        require(msg.sender == cardToOwner[_cardId]);\n        _;\n    }\n\n    function addCardInDeck(uint _cardId) external onlyOwnerOf(_cardId){ //passer une carte en parametre\n        //Check si ownerCardInDeckCount est plus petit que 10 (taille max du deck)\n        //Passer la variable isInDeck  True (revient a ajouter la carte au Deck)\n        //incrementer ownerCardInDeckCount de 1\n        require(ownerCardInDeckCount[msg.sender]<10);\n        cards[_cardId].isInDeck = true;\n        ownerCardInDeckCount[msg.sender]++;\n    }\n\n    function removeCardInDeck(uint _cardId) external onlyOwnerOf(_cardId) { //passer une carte en parametre\n        //Check si ownerCardInDeckCount est plus grand que 0 (taille min du deck)\n        //Passer la variable isInDeck de la carte  False (revient a supprimer la carte du Deck)\n        //decrementer ownerCardInDeckCount de 1\n        require(ownerCardInDeckCount[msg.sender]>0);\n        cards[_cardId].isInDeck = false;\n        ownerCardInDeckCount[msg.sender]--;\n    }\n\n      function approve(address _approved, uint256 _cardId) public override onlyOwnerOf(_cardId) {\n      CardApprovals[_cardId] = _approved;\n      emit Approval(msg.sender, _approved, _cardId);\n    }\n\n    function takeOwnership(uint256 _cardId) public {\n    require(CardApprovals[_cardId] == msg.sender);\n    address owner = ownerOf(_cardId);\n    _transfer(owner, msg.sender, _cardId);\n  }\n\n    //problme : pour afficher les cartes du Deck c'est compliqu (il faut parcourir toutes les cartes \n    //  et selectionner seulement celles qui ont isInDeck a True\n    function _cardShuffle(uint[] memory deck) internal view {\n        //Deux possibilites\n        //ajouter un variable  la structure de Card pour indiquer son rang dans le deck\n        //ne pas ecrire cette fonction et effectuer le choix aleatoire pdt cardBattle \n        //  -> prendre une carte alatoire parmis celle du joueur qui ont isInDeck  True et n'ont pas encore ete jou\n        //  Besoin d'ajouter une varaible : hasBeenPlayed dans dans la struct de card\n\n        for (uint256 i = 0; i < deck.length; i++) {\n            uint256 n = i + uint256(keccak256(abi.encodePacked(block.timestamp))) % (deck.length - i);\n            uint256 temp = deck[n];\n            deck[n] = deck[i];\n            deck[i] = temp;\n        }\n    }\n     function min(uint256 a, uint256 b) internal pure returns (uint256) {\n        return a <= b ? a : b;\n    }\n\n function _cardBattle(address adrj1, address adrj2) external { //address des deux joueurs \n        // Variable interne : compteur de point pour chaque joueur\n\n        //boucle x10 (ou max du nombre de carte dans les decks)\n            //comparer les cartes des deux joueurs et changer les variable internes en fonction\n        \n        //Retourner le resultat du match \n        //  (voir pour modifier un variable globale, peut etre plus securis)\n\n        uint[] memory deck1 = getCardsInDeckByOwner(adrj1);\n        _cardShuffle(deck1);\n        uint[] memory deck2 = getCardsInDeckByOwner(adrj2);\n        _cardShuffle(deck2);\n\n        int8 score = 0;\n\n        for (uint i = 0; i < min(deck1.length, deck2.length); i++){\n            if (deck1[i]>deck2[i]) {\n                score++;\n            }\n            else if (deck1[i]<deck2[i]){\n                score--;\n            }\n        }\n\n        if (score>0){\n            OwnerToWin[adrj1]++;\n        }\n        else if (score<0) {\n            OwnerToWin[adrj2]++;\n        }\n    }\n\n    function getCardsByOwner(address _owner) external view returns(uint[] memory) {\n        uint[] memory result = new uint[](ownerCardCount[_owner]);\n        uint counter = 0;\n        for (uint i = 0; i < cards.length; i++) {\n            if (cardToOwner[i] == _owner) {\n                result[counter] = i;\n                counter++;\n            }\n        }\n        return result;\n    }\n\n    function getCardsInDeckByOwner(address _owner) internal view returns(uint[] memory) {\n        uint[] memory result = new uint[](ownerCardInDeckCount[_owner]);\n        uint counter = 0;\n        for (uint i = 0; i < cards.length; i++) {\n            if (cardToOwner[i] == _owner && cards[i].isInDeck == true) {\n                result[counter] = i;\n                counter++;\n            }\n        }\n        return result;\n    }\n\n  event NewCard(uint _id,uint8 _puissance, bool _isInDeck);\n  uint puissanceDigits = 16;\n  uint puissanceModulus = 10 ** puissanceDigits;\n\n\n  function _createCard() internal {\n    cards.push(Card(1,8,false));\n    uint id = cards.length - 1;\n    cardToOwner[id] = msg.sender;\n    ownerCardCount[msg.sender] ++;\n    emit NewCard(1,8,false);\n  }\n\n  function _generateRandomPuissance(string memory _str) private view returns (uint) {\n    uint rand = uint(keccak256(abi.encodePacked(_str)));\n    return rand % puissanceModulus;\n  }\n\n  function createRandomCard(string memory _name) public {\n    require(ownerCardCount[msg.sender] == 0);\n    uint randPuissance = _generateRandomPuissance(_name);\n    randPuissance = randPuissance - randPuissance % 100;\n    _createCard();\n  }\n\n}\n",
  "sourcePath": "/Users/arthurtheillier/Documents/BarriCard/contracts/Barricard.sol",
  "compiler": {
    "name": "solc",
    "version": "0.8.13+commit.abaa5c0e.Emscripten.clang"
  },
  "schemaVersion": "3.4.6",
  "updatedAt": "2022-05-05T11:16:29.597Z",
  "devdoc": {
    "kind": "dev",
    "methods": {
      "balanceOf(address)": {
        "details": "See {IERC721-balanceOf}."
      },
      "getApproved(uint256)": {
        "details": "See {IERC721-getApproved}."
      },
      "isApprovedForAll(address,address)": {
        "details": "See {IERC721-isApprovedForAll}."
      },
      "name()": {
        "details": "See {IERC721Metadata-name}."
      },
      "ownerOf(uint256)": {
        "details": "See {IERC721-ownerOf}."
      },
      "safeTransferFrom(address,address,uint256)": {
        "details": "See {IERC721-safeTransferFrom}."
      },
      "safeTransferFrom(address,address,uint256,bytes)": {
        "details": "See {IERC721-safeTransferFrom}."
      },
      "setApprovalForAll(address,bool)": {
        "details": "See {IERC721-setApprovalForAll}."
      },
      "supportsInterface(bytes4)": {
        "details": "See {IERC165-supportsInterface}."
      },
      "symbol()": {
        "details": "See {IERC721Metadata-symbol}."
      },
      "tokenURI(uint256)": {
        "details": "See {IERC721Metadata-tokenURI}."
      },
      "transferFrom(address,address,uint256)": {
        "details": "See {IERC721-transferFrom}."
      }
    },
    "version": 1
  },
  "userdoc": {
    "kind": "user",
    "methods": {},
    "version": 1
  }
}