{
  "contractName": "CardFactory",
  "abi": [
    {
      "anonymous": false,
      "inputs": [],
      "name": "NewCard",
      "type": "event"
    },
    {
      "anonymous": false,
      "inputs": [
        {
          "indexed": true,
          "internalType": "address",
          "name": "previousOwner",
          "type": "address"
        },
        {
          "indexed": true,
          "internalType": "address",
          "name": "newOwner",
          "type": "address"
        }
      ],
      "name": "OwnershipTransferred",
      "type": "event"
    },
    {
      "inputs": [
        {
          "internalType": "uint256",
          "name": "",
          "type": "uint256"
        }
      ],
      "name": "cardToOwner",
      "outputs": [
        {
          "internalType": "address",
          "name": "",
          "type": "address"
        }
      ],
      "stateMutability": "view",
      "type": "function"
    },
    {
      "inputs": [
        {
          "internalType": "uint256",
          "name": "",
          "type": "uint256"
        }
      ],
      "name": "cards",
      "outputs": [
        {
          "internalType": "uint256",
          "name": "id",
          "type": "uint256"
        },
        {
          "internalType": "uint8",
          "name": "puissance",
          "type": "uint8"
        },
        {
          "internalType": "bool",
          "name": "isInDeck",
          "type": "bool"
        }
      ],
      "stateMutability": "view",
      "type": "function"
    },
    {
      "inputs": [],
      "name": "isOwner",
      "outputs": [
        {
          "internalType": "bool",
          "name": "",
          "type": "bool"
        }
      ],
      "stateMutability": "view",
      "type": "function"
    },
    {
      "inputs": [],
      "name": "owner",
      "outputs": [
        {
          "internalType": "address",
          "name": "",
          "type": "address"
        }
      ],
      "stateMutability": "view",
      "type": "function"
    },
    {
      "inputs": [],
      "name": "renounceOwnership",
      "outputs": [],
      "stateMutability": "nonpayable",
      "type": "function"
    },
    {
      "inputs": [
        {
          "internalType": "address",
          "name": "newOwner",
          "type": "address"
        }
      ],
      "name": "transferOwnership",
      "outputs": [],
      "stateMutability": "nonpayable",
      "type": "function"
    },
    {
      "inputs": [
        {
          "internalType": "string",
          "name": "_name",
          "type": "string"
        }
      ],
      "name": "createRandomCard",
      "outputs": [],
      "stateMutability": "nonpayable",
      "type": "function"
    }
  ],
  "bytecode": "0x60806040526010600155600154600a6200001a919062000279565b6002553480156200002a57600080fd5b50336000806101000a81548173ffffffffffffffffffffffffffffffffffffffff021916908373ffffffffffffffffffffffffffffffffffffffff16021790555060008054906101000a900473ffffffffffffffffffffffffffffffffffffffff1673ffffffffffffffffffffffffffffffffffffffff16600073ffffffffffffffffffffffffffffffffffffffff167f8be0079c531659141344cd1fd0a4f28419497f9722a3daafe3b4186f6b6457e060405160405180910390a3620002ca565b7f4e487b7100000000000000000000000000000000000000000000000000000000600052601160045260246000fd5b60008160011c9050919050565b6000808291508390505b60018511156200017a57808604811115620001525762000151620000ec565b5b6001851615620001625780820291505b808102905062000172856200011b565b945062000132565b94509492505050565b60008262000195576001905062000268565b81620001a5576000905062000268565b8160018114620001be5760028114620001c957620001ff565b600191505062000268565b60ff841115620001de57620001dd620000ec565b5b8360020a915084821115620001f857620001f7620000ec565b5b5062000268565b5060208310610133831016604e8410600b8410161715620002395782820a905083811115620002335762000232620000ec565b5b62000268565b62000248848484600162000128565b92509050818404811115620002625762000261620000ec565b5b81810290505b9392505050565b6000819050919050565b600062000286826200026f565b915062000293836200026f565b9250620002c27fffffffffffffffffffffffffffffffffffffffffffffffffffffffffffffffff848462000183565b905092915050565b610bcc80620002da6000396000f3fe608060405234801561001057600080fd5b506004361061007d5760003560e01c80638dc107681161005b5780638dc10768146100c65780638f32d59b146100f8578063f2fde38b14610116578063ffb976ec146101325761007d565b80634575981e14610082578063715018a61461009e5780638da5cb5b146100a8575b600080fd5b61009c60048036038101906100979190610820565b610162565b005b6100a66101f1565b005b6100b06102c0565b6040516100bd91906108aa565b60405180910390f35b6100e060048036038101906100db91906108fb565b6102e9565b6040516100ef9392919061096e565b60405180910390f35b61010061033d565b60405161010d91906109a5565b60405180910390f35b610130600480360381019061012b91906109ec565b610394565b005b61014c600480360381019061014791906108fb565b6103b1565b60405161015991906108aa565b60405180910390f35b6000600560003373ffffffffffffffffffffffffffffffffffffffff1673ffffffffffffffffffffffffffffffffffffffff16815260200190815260200160002060009054906101000a900460ff1660ff16146101be57600080fd5b60006101c9826103e4565b90506064816101d89190610a48565b816101e39190610aa8565b90506101ed610429565b5050565b6101f961033d565b61020257600080fd5b600073ffffffffffffffffffffffffffffffffffffffff1660008054906101000a900473ffffffffffffffffffffffffffffffffffffffff1673ffffffffffffffffffffffffffffffffffffffff167f8be0079c531659141344cd1fd0a4f28419497f9722a3daafe3b4186f6b6457e060405160405180910390a360008060006101000a81548173ffffffffffffffffffffffffffffffffffffffff021916908373ffffffffffffffffffffffffffffffffffffffff160217905550565b60008060009054906101000a900473ffffffffffffffffffffffffffffffffffffffff16905090565b600381815481106102f957600080fd5b90600052602060002090600202016000915090508060000154908060010160009054906101000a900460ff16908060010160019054906101000a900460ff16905083565b60008060009054906101000a900473ffffffffffffffffffffffffffffffffffffffff1673ffffffffffffffffffffffffffffffffffffffff163373ffffffffffffffffffffffffffffffffffffffff1614905090565b61039c61033d565b6103a557600080fd5b6103ae816105d0565b50565b60046020528060005260406000206000915054906101000a900473ffffffffffffffffffffffffffffffffffffffff1681565b600080826040516020016103f89190610b56565b6040516020818303038152906040528051906020012060001c9050600254816104219190610a48565b915050919050565b6003604051806060016040528060018152602001600860ff1681526020016000151581525090806001815401808255809150506001900390600052602060002090600202016000909190919091506000820151816000015560208201518160010160006101000a81548160ff021916908360ff16021790555060408201518160010160016101000a81548160ff0219169083151502179055505050600060016003805490506104d89190610aa8565b9050336004600083815260200190815260200160002060006101000a81548173ffffffffffffffffffffffffffffffffffffffff021916908373ffffffffffffffffffffffffffffffffffffffff160217905550600560003373ffffffffffffffffffffffffffffffffffffffff1673ffffffffffffffffffffffffffffffffffffffff168152602001908152602001600020600081819054906101000a900460ff168092919061058890610b6d565b91906101000a81548160ff021916908360ff160217905550507f0b65b5464589082b8122394ce0274824a2ccf9757c2d45456ba70ed923fc6dcb60405160405180910390a150565b600073ffffffffffffffffffffffffffffffffffffffff168173ffffffffffffffffffffffffffffffffffffffff160361060957600080fd5b8073ffffffffffffffffffffffffffffffffffffffff1660008054906101000a900473ffffffffffffffffffffffffffffffffffffffff1673ffffffffffffffffffffffffffffffffffffffff167f8be0079c531659141344cd1fd0a4f28419497f9722a3daafe3b4186f6b6457e060405160405180910390a3806000806101000a81548173ffffffffffffffffffffffffffffffffffffffff021916908373ffffffffffffffffffffffffffffffffffffffff16021790555050565b6000604051905090565b600080fd5b600080fd5b600080fd5b600080fd5b6000601f19601f8301169050919050565b7f4e487b7100000000000000000000000000000000000000000000000000000000600052604160045260246000fd5b61072d826106e4565b810181811067ffffffffffffffff8211171561074c5761074b6106f5565b5b80604052505050565b600061075f6106c6565b905061076b8282610724565b919050565b600067ffffffffffffffff82111561078b5761078a6106f5565b5b610794826106e4565b9050602081019050919050565b82818337600083830152505050565b60006107c36107be84610770565b610755565b9050828152602081018484840111156107df576107de6106df565b5b6107ea8482856107a1565b509392505050565b600082601f830112610807576108066106da565b5b81356108178482602086016107b0565b91505092915050565b600060208284031215610836576108356106d0565b5b600082013567ffffffffffffffff811115610854576108536106d5565b5b610860848285016107f2565b91505092915050565b600073ffffffffffffffffffffffffffffffffffffffff82169050919050565b600061089482610869565b9050919050565b6108a481610889565b82525050565b60006020820190506108bf600083018461089b565b92915050565b6000819050919050565b6108d8816108c5565b81146108e357600080fd5b50565b6000813590506108f5816108cf565b92915050565b600060208284031215610911576109106106d0565b5b600061091f848285016108e6565b91505092915050565b610931816108c5565b82525050565b600060ff82169050919050565b61094d81610937565b82525050565b60008115159050919050565b61096881610953565b82525050565b60006060820190506109836000830186610928565b6109906020830185610944565b61099d604083018461095f565b949350505050565b60006020820190506109ba600083018461095f565b92915050565b6109c981610889565b81146109d457600080fd5b50565b6000813590506109e6816109c0565b92915050565b600060208284031215610a0257610a016106d0565b5b6000610a10848285016109d7565b91505092915050565b7f4e487b7100000000000000000000000000000000000000000000000000000000600052601260045260246000fd5b6000610a53826108c5565b9150610a5e836108c5565b925082610a6e57610a6d610a19565b5b828206905092915050565b7f4e487b7100000000000000000000000000000000000000000000000000000000600052601160045260246000fd5b6000610ab3826108c5565b9150610abe836108c5565b925082821015610ad157610ad0610a79565b5b828203905092915050565b600081519050919050565b600081905092915050565b60005b83811015610b10578082015181840152602081019050610af5565b83811115610b1f576000848401525b50505050565b6000610b3082610adc565b610b3a8185610ae7565b9350610b4a818560208601610af2565b80840191505092915050565b6000610b628284610b25565b915081905092915050565b6000610b7882610937565b915060ff8203610b8b57610b8a610a79565b5b60018201905091905056fea264697066735822122084923268eb19bc11ddb7910d1364f083cbb28b05d24807172a33909d008e7df864736f6c634300080d0033",
  "immutableReferences": {},
  "source": "// SPDX-License-Identifier: MIT\npragma solidity >=0.4.22 <0.9.0;\n\nimport \"./ownable.sol\";\nimport \"./safemath.sol\";\n\ncontract CardFactory is Ownable {\n\n  using SafeMath for uint256;\n  using SafeMath32 for uint32;\n  using SafeMath16 for uint16;\n\n  event NewCard();\n  uint puissanceDigits = 16;\n  uint puissanceModulus = 10 ** puissanceDigits;\n \n struct Card {\n        uint id;\n        uint8 puissance;\n        bool isInDeck;\n    }\n\n  Card[] public cards;\n\n\n    mapping (uint => address) public cardToOwner;\n    mapping (address => uint8) ownerCardCount;\n\n\n  function _createCard() internal {\n    cards.push(Card(1,8,false));\n    uint id = cards.length - 1;\n    cardToOwner[id] = msg.sender;\n    ownerCardCount[msg.sender] ++;\n    emit NewCard();\n  }\n\n  function _generateRandomPuissance(string memory _str) private view returns (uint) {\n    uint rand = uint(keccak256(abi.encodePacked(_str)));\n    return rand % puissanceModulus;\n  }\n\n  function createRandomCard(string memory _name) public {\n    require(ownerCardCount[msg.sender] == 0);\n    uint randPuissance = _generateRandomPuissance(_name);\n    randPuissance = randPuissance - randPuissance % 100;\n    _createCard();\n  }\n\n}\n",
  "sourcePath": "/Users/arthurtheillier/Documents/TEST/contracts/Cardfactory.sol",
  "compiler": {
    "name": "solc",
    "version": "0.8.13+commit.abaa5c0e.Emscripten.clang"
  },
  "schemaVersion": "3.4.6",
  "updatedAt": "2022-05-04T13:10:20.355Z",
  "devdoc": {
    "kind": "dev",
    "methods": {
      "isOwner()": {
        "returns": {
          "_0": "true if `msg.sender` is the owner of the contract."
        }
      },
      "owner()": {
        "returns": {
          "_0": "the address of the owner."
        }
      },
      "renounceOwnership()": {
        "details": "Allows the current owner to relinquish control of the contract."
      },
      "transferOwnership(address)": {
        "details": "Allows the current owner to transfer control of the contract to a newOwner.",
        "params": {
          "newOwner": "The address to transfer ownership to."
        }
      }
    },
    "version": 1
  },
  "userdoc": {
    "kind": "user",
    "methods": {
      "renounceOwnership()": {
        "notice": "Renouncing to ownership will leave the contract without an owner. It will not be possible to call the functions with the `onlyOwner` modifier anymore."
      }
    },
    "version": 1
  }
}